{
  "contractName": "Garage",
  "abi": [
    {
      "anonymous": false,
      "inputs": [
        {
          "indexed": true,
          "internalType": "address",
          "name": "owner",
          "type": "address"
        },
        {
          "indexed": true,
          "internalType": "address",
          "name": "approved",
          "type": "address"
        },
        {
          "indexed": true,
          "internalType": "uint256",
          "name": "tokenId",
          "type": "uint256"
        }
      ],
      "name": "Approval",
      "type": "event"
    },
    {
      "anonymous": false,
      "inputs": [
        {
          "indexed": true,
          "internalType": "address",
          "name": "owner",
          "type": "address"
        },
        {
          "indexed": true,
          "internalType": "address",
          "name": "operator",
          "type": "address"
        },
        {
          "indexed": false,
          "internalType": "bool",
          "name": "approved",
          "type": "bool"
        }
      ],
      "name": "ApprovalForAll",
      "type": "event"
    },
    {
      "anonymous": false,
      "inputs": [
        {
          "indexed": false,
          "internalType": "string",
          "name": "",
          "type": "string"
        },
        {
          "indexed": false,
          "internalType": "string",
          "name": "",
          "type": "string"
        }
      ],
      "name": "Event",
      "type": "event"
    },
    {
      "anonymous": false,
      "inputs": [
        {
          "indexed": true,
          "internalType": "address",
          "name": "previousOwner",
          "type": "address"
        },
        {
          "indexed": true,
          "internalType": "address",
          "name": "newOwner",
          "type": "address"
        }
      ],
      "name": "OwnershipTransferred",
      "type": "event"
    },
    {
      "anonymous": false,
      "inputs": [
        {
          "indexed": true,
          "internalType": "address",
          "name": "from",
          "type": "address"
        },
        {
          "indexed": true,
          "internalType": "address",
          "name": "to",
          "type": "address"
        },
        {
          "indexed": true,
          "internalType": "uint256",
          "name": "tokenId",
          "type": "uint256"
        }
      ],
      "name": "Transfer",
      "type": "event"
    },
    {
      "inputs": [
        {
          "internalType": "string",
          "name": "",
          "type": "string"
        }
      ],
      "name": "CarParameters",
      "outputs": [
        {
          "internalType": "string",
          "name": "make",
          "type": "string"
        },
        {
          "internalType": "string",
          "name": "modelID",
          "type": "string"
        },
        {
          "internalType": "uint32",
          "name": "dateOfPurchase",
          "type": "uint32"
        },
        {
          "internalType": "uint32",
          "name": "costOfPurchase",
          "type": "uint32"
        },
        {
          "internalType": "uint32",
          "name": "milageWhenPurchased",
          "type": "uint32"
        },
        {
          "internalType": "uint8",
          "name": "category",
          "type": "uint8"
        },
        {
          "internalType": "uint32",
          "name": "currentMilage",
          "type": "uint32"
        },
        {
          "internalType": "uint256",
          "name": "lastPickup",
          "type": "uint256"
        },
        {
          "internalType": "string",
          "name": "lastDriver",
          "type": "string"
        },
        {
          "internalType": "bool",
          "name": "occupied",
          "type": "bool"
        },
        {
          "internalType": "uint256",
          "name": "tokenID",
          "type": "uint256"
        }
      ],
      "stateMutability": "view",
      "type": "function"
    },
    {
      "inputs": [
        {
          "internalType": "string",
          "name": "",
          "type": "string"
        }
      ],
      "name": "EmployeeParameters",
      "outputs": [
        {
          "internalType": "uint8",
          "name": "clearance",
          "type": "uint8"
        },
        {
          "internalType": "address",
          "name": "walletAddress",
          "type": "address"
        },
        {
          "internalType": "string",
          "name": "drivenCar",
          "type": "string"
        },
        {
          "internalType": "bool",
          "name": "exists",
          "type": "bool"
        }
      ],
      "stateMutability": "view",
      "type": "function"
    },
    {
      "inputs": [
        {
          "internalType": "string",
          "name": "_name",
          "type": "string"
        },
        {
          "internalType": "uint8",
          "name": "_clearance",
          "type": "uint8"
        },
        {
          "internalType": "address",
          "name": "_walletAddress",
          "type": "address"
        }
      ],
      "name": "HR_AddEmployee",
      "outputs": [],
      "stateMutability": "nonpayable",
      "type": "function"
    },
    {
      "inputs": [
        {
          "internalType": "string",
          "name": "_name",
          "type": "string"
        }
      ],
      "name": "HR_DeleteEmployee",
      "outputs": [],
      "stateMutability": "nonpayable",
      "type": "function"
    },
    {
      "inputs": [
        {
          "internalType": "string",
          "name": "_name",
          "type": "string"
        }
      ],
      "name": "HR_GetAddress",
      "outputs": [
        {
          "internalType": "address",
          "name": "",
          "type": "address"
        }
      ],
      "stateMutability": "view",
      "type": "function"
    },
    {
      "inputs": [
        {
          "internalType": "string",
          "name": "_name",
          "type": "string"
        }
      ],
      "name": "HR_GetClearance",
      "outputs": [
        {
          "internalType": "uint8",
          "name": "",
          "type": "uint8"
        }
      ],
      "stateMutability": "view",
      "type": "function"
    },
    {
      "inputs": [
        {
          "internalType": "string",
          "name": "_name",
          "type": "string"
        }
      ],
      "name": "HR_GetDrivenCar",
      "outputs": [
        {
          "internalType": "string",
          "name": "",
          "type": "string"
        }
      ],
      "stateMutability": "view",
      "type": "function"
    },
    {
      "inputs": [
        {
          "internalType": "string",
          "name": "_name",
          "type": "string"
        }
      ],
      "name": "HR_IsEmployee",
      "outputs": [
        {
          "internalType": "bool",
          "name": "",
          "type": "bool"
        }
      ],
      "stateMutability": "view",
      "type": "function"
    },
    {
      "inputs": [
        {
          "internalType": "string",
          "name": "_name",
          "type": "string"
        },
        {
          "internalType": "uint8",
          "name": "_clearance",
          "type": "uint8"
        },
        {
          "internalType": "address",
          "name": "_walletAddress",
          "type": "address"
        }
      ],
      "name": "HR_ModifyEmployee",
      "outputs": [],
      "stateMutability": "nonpayable",
      "type": "function"
    },
    {
      "inputs": [],
      "name": "admin",
      "outputs": [
        {
          "internalType": "address",
          "name": "",
          "type": "address"
        }
      ],
      "stateMutability": "view",
      "type": "function"
    },
    {
      "inputs": [
        {
          "internalType": "address",
          "name": "to",
          "type": "address"
        },
        {
          "internalType": "uint256",
          "name": "tokenId",
          "type": "uint256"
        }
      ],
      "name": "approve",
      "outputs": [],
      "stateMutability": "nonpayable",
      "type": "function"
    },
    {
      "inputs": [
        {
          "internalType": "address",
          "name": "owner",
          "type": "address"
        }
      ],
      "name": "balanceOf",
      "outputs": [
        {
          "internalType": "uint256",
          "name": "",
          "type": "uint256"
        }
      ],
      "stateMutability": "view",
      "type": "function"
    },
    {
      "inputs": [
        {
          "internalType": "string",
          "name": "_a",
          "type": "string"
        },
        {
          "internalType": "string",
          "name": "_b",
          "type": "string"
        }
      ],
      "name": "compare",
      "outputs": [
        {
          "internalType": "int256",
          "name": "",
          "type": "int256"
        }
      ],
      "stateMutability": "pure",
      "type": "function"
    },
    {
      "inputs": [
        {
          "internalType": "string",
          "name": "_a",
          "type": "string"
        },
        {
          "internalType": "string",
          "name": "_b",
          "type": "string"
        }
      ],
      "name": "equal",
      "outputs": [
        {
          "internalType": "bool",
          "name": "",
          "type": "bool"
        }
      ],
      "stateMutability": "pure",
      "type": "function"
    },
    {
      "inputs": [
        {
          "internalType": "uint256",
          "name": "tokenId",
          "type": "uint256"
        }
      ],
      "name": "getApproved",
      "outputs": [
        {
          "internalType": "address",
          "name": "",
          "type": "address"
        }
      ],
      "stateMutability": "view",
      "type": "function"
    },
    {
      "inputs": [
        {
          "internalType": "string",
          "name": "_haystack",
          "type": "string"
        },
        {
          "internalType": "string",
          "name": "_needle",
          "type": "string"
        }
      ],
      "name": "indexOf",
      "outputs": [
        {
          "internalType": "int256",
          "name": "",
          "type": "int256"
        }
      ],
      "stateMutability": "pure",
      "type": "function"
    },
    {
      "inputs": [
        {
          "internalType": "address",
          "name": "owner",
          "type": "address"
        },
        {
          "internalType": "address",
          "name": "operator",
          "type": "address"
        }
      ],
      "name": "isApprovedForAll",
      "outputs": [
        {
          "internalType": "bool",
          "name": "",
          "type": "bool"
        }
      ],
      "stateMutability": "view",
      "type": "function"
    },
    {
      "inputs": [],
      "name": "name",
      "outputs": [
        {
          "internalType": "string",
          "name": "",
          "type": "string"
        }
      ],
      "stateMutability": "view",
      "type": "function"
    },
    {
      "inputs": [],
      "name": "owner",
      "outputs": [
        {
          "internalType": "address",
          "name": "",
          "type": "address"
        }
      ],
      "stateMutability": "view",
      "type": "function"
    },
    {
      "inputs": [
        {
          "internalType": "uint256",
          "name": "tokenId",
          "type": "uint256"
        }
      ],
      "name": "ownerOf",
      "outputs": [
        {
          "internalType": "address",
          "name": "",
          "type": "address"
        }
      ],
      "stateMutability": "view",
      "type": "function"
    },
    {
      "inputs": [],
      "name": "renounceOwnership",
      "outputs": [],
      "stateMutability": "nonpayable",
      "type": "function"
    },
    {
      "inputs": [
        {
          "internalType": "address",
          "name": "from",
          "type": "address"
        },
        {
          "internalType": "address",
          "name": "to",
          "type": "address"
        },
        {
          "internalType": "uint256",
          "name": "tokenId",
          "type": "uint256"
        }
      ],
      "name": "safeTransferFrom",
      "outputs": [],
      "stateMutability": "nonpayable",
      "type": "function"
    },
    {
      "inputs": [
        {
          "internalType": "address",
          "name": "from",
          "type": "address"
        },
        {
          "internalType": "address",
          "name": "to",
          "type": "address"
        },
        {
          "internalType": "uint256",
          "name": "tokenId",
          "type": "uint256"
        },
        {
          "internalType": "bytes",
          "name": "_data",
          "type": "bytes"
        }
      ],
      "name": "safeTransferFrom",
      "outputs": [],
      "stateMutability": "nonpayable",
      "type": "function"
    },
    {
      "inputs": [
        {
          "internalType": "address",
          "name": "operator",
          "type": "address"
        },
        {
          "internalType": "bool",
          "name": "approved",
          "type": "bool"
        }
      ],
      "name": "setApprovalForAll",
      "outputs": [],
      "stateMutability": "nonpayable",
      "type": "function"
    },
    {
      "inputs": [
        {
          "internalType": "bytes4",
          "name": "interfaceId",
          "type": "bytes4"
        }
      ],
      "name": "supportsInterface",
      "outputs": [
        {
          "internalType": "bool",
          "name": "",
          "type": "bool"
        }
      ],
      "stateMutability": "view",
      "type": "function"
    },
    {
      "inputs": [],
      "name": "symbol",
      "outputs": [
        {
          "internalType": "string",
          "name": "",
          "type": "string"
        }
      ],
      "stateMutability": "view",
      "type": "function"
    },
    {
      "inputs": [
        {
          "internalType": "uint256",
          "name": "tokenId",
          "type": "uint256"
        }
      ],
      "name": "tokenURI",
      "outputs": [
        {
          "internalType": "string",
          "name": "",
          "type": "string"
        }
      ],
      "stateMutability": "view",
      "type": "function"
    },
    {
      "inputs": [
        {
          "internalType": "address",
          "name": "from",
          "type": "address"
        },
        {
          "internalType": "address",
          "name": "to",
          "type": "address"
        },
        {
          "internalType": "uint256",
          "name": "tokenId",
          "type": "uint256"
        }
      ],
      "name": "transferFrom",
      "outputs": [],
      "stateMutability": "nonpayable",
      "type": "function"
    },
    {
      "inputs": [
        {
          "internalType": "address",
          "name": "newOwner",
          "type": "address"
        }
      ],
      "name": "transferOwnership",
      "outputs": [],
      "stateMutability": "nonpayable",
      "type": "function"
    },
    {
      "inputs": [
        {
          "internalType": "address",
          "name": "_admin",
          "type": "address"
        }
      ],
      "name": "G_SwitchAdmin",
      "outputs": [],
      "stateMutability": "nonpayable",
      "type": "function"
    },
    {
      "inputs": [
        {
          "internalType": "string",
          "name": "_registrationNumber",
          "type": "string"
        },
        {
          "internalType": "string",
          "name": "_make",
          "type": "string"
        },
        {
          "internalType": "string",
          "name": "_modelID",
          "type": "string"
        },
        {
          "internalType": "uint32",
          "name": "_dateOfPurchase",
          "type": "uint32"
        },
        {
          "internalType": "uint32",
          "name": "_costOfPurchase",
          "type": "uint32"
        },
        {
          "internalType": "uint32",
          "name": "_milageWhenPurchased",
          "type": "uint32"
        },
        {
          "internalType": "uint8",
          "name": "_category",
          "type": "uint8"
        }
      ],
      "name": "G_AddCar",
      "outputs": [],
      "stateMutability": "nonpayable",
      "type": "function"
    },
    {
      "inputs": [
        {
          "internalType": "string",
          "name": "_registrationNumber",
          "type": "string"
        }
      ],
      "name": "G_DeleteCar",
      "outputs": [],
      "stateMutability": "nonpayable",
      "type": "function"
    },
    {
      "inputs": [
        {
          "internalType": "string",
          "name": "_name",
          "type": "string"
        },
        {
          "internalType": "string",
          "name": "_registrationNumber",
          "type": "string"
        },
        {
          "internalType": "uint32",
          "name": "_currentMilage",
          "type": "uint32"
        }
      ],
      "name": "G_PickupCar",
      "outputs": [],
      "stateMutability": "nonpayable",
      "type": "function"
    },
    {
      "inputs": [
        {
          "internalType": "string",
          "name": "_name",
          "type": "string"
        }
      ],
      "name": "G_DropoffCar",
      "outputs": [],
      "stateMutability": "nonpayable",
      "type": "function"
    },
    {
      "inputs": [
        {
          "internalType": "string",
          "name": "_registrationNumber",
          "type": "string"
        }
      ],
      "name": "G_GetMake",
      "outputs": [
        {
          "internalType": "string",
          "name": "",
          "type": "string"
        }
      ],
      "stateMutability": "view",
      "type": "function"
    },
    {
      "inputs": [
        {
          "internalType": "string",
          "name": "_registrationNumber",
          "type": "string"
        }
      ],
      "name": "G_GetModelID",
      "outputs": [
        {
          "internalType": "string",
          "name": "",
          "type": "string"
        }
      ],
      "stateMutability": "view",
      "type": "function"
    },
    {
      "inputs": [
        {
          "internalType": "string",
          "name": "_registrationNumber",
          "type": "string"
        }
      ],
      "name": "G_GetDateOfPurchase",
      "outputs": [
        {
          "internalType": "uint32",
          "name": "",
          "type": "uint32"
        }
      ],
      "stateMutability": "view",
      "type": "function"
    },
    {
      "inputs": [
        {
          "internalType": "string",
          "name": "_registrationNumber",
          "type": "string"
        }
      ],
      "name": "G_GetCostOfPurchase",
      "outputs": [
        {
          "internalType": "uint32",
          "name": "",
          "type": "uint32"
        }
      ],
      "stateMutability": "view",
      "type": "function"
    },
    {
      "inputs": [
        {
          "internalType": "string",
          "name": "_registrationNumber",
          "type": "string"
        }
      ],
      "name": "G_GetMilageWhenPurchased",
      "outputs": [
        {
          "internalType": "uint32",
          "name": "",
          "type": "uint32"
        }
      ],
      "stateMutability": "view",
      "type": "function"
    },
    {
      "inputs": [
        {
          "internalType": "string",
          "name": "_registrationNumber",
          "type": "string"
        }
      ],
      "name": "G_GetCategory",
      "outputs": [
        {
          "internalType": "uint8",
          "name": "",
          "type": "uint8"
        }
      ],
      "stateMutability": "view",
      "type": "function"
    },
    {
      "inputs": [
        {
          "internalType": "string",
          "name": "_registrationNumber",
          "type": "string"
        }
      ],
      "name": "G_GetCurrentMilage",
      "outputs": [
        {
          "internalType": "uint32",
          "name": "",
          "type": "uint32"
        }
      ],
      "stateMutability": "view",
      "type": "function"
    },
    {
      "inputs": [
        {
          "internalType": "string",
          "name": "_registrationNumber",
          "type": "string"
        }
      ],
      "name": "G_GetLastPickup",
      "outputs": [
        {
          "internalType": "uint256",
          "name": "",
          "type": "uint256"
        }
      ],
      "stateMutability": "view",
      "type": "function"
    },
    {
      "inputs": [
        {
          "internalType": "string",
          "name": "_registrationNumber",
          "type": "string"
        }
      ],
      "name": "G_GetLastDriver",
      "outputs": [
        {
          "internalType": "string",
          "name": "",
          "type": "string"
        }
      ],
      "stateMutability": "view",
      "type": "function"
    },
    {
      "inputs": [
        {
          "internalType": "string",
          "name": "_registrationNumber",
          "type": "string"
        }
      ],
      "name": "G_GetOccupied",
      "outputs": [
        {
          "internalType": "bool",
          "name": "",
          "type": "bool"
        }
      ],
      "stateMutability": "view",
      "type": "function"
    },
    {
      "inputs": [
        {
          "internalType": "string",
          "name": "_registrationNumber",
          "type": "string"
        }
      ],
      "name": "G_GetDriverAddress",
      "outputs": [
        {
          "internalType": "address",
          "name": "",
          "type": "address"
        }
      ],
      "stateMutability": "view",
      "type": "function"
    }
  ],
  "bytecode": "0x608060405233600a60006101000a81548173ffffffffffffffffffffffffffffffffffffffff021916908373ffffffffffffffffffffffffffffffffffffffff1602179055503480156200005257600080fd5b506040518060400160405280600381526020017f43617200000000000000000000000000000000000000000000000000000000008152506040518060400160405280600381526020017f43415200000000000000000000000000000000000000000000000000000000008152508160009080519060200190620000d7929190620001e7565b508060019080519060200190620000f0929190620001e7565b50505062000113620001076200011960201b60201c565b6200012160201b60201c565b620002fb565b600033905090565b6000600760009054906101000a900473ffffffffffffffffffffffffffffffffffffffff16905081600760006101000a81548173ffffffffffffffffffffffffffffffffffffffff021916908373ffffffffffffffffffffffffffffffffffffffff1602179055508173ffffffffffffffffffffffffffffffffffffffff168173ffffffffffffffffffffffffffffffffffffffff167f8be0079c531659141344cd1fd0a4f28419497f9722a3daafe3b4186f6b6457e060405160405180910390a35050565b828054620001f590620002c6565b90600052602060002090601f01602090048101928262000219576000855562000265565b82601f106200023457805160ff191683800117855562000265565b8280016001018555821562000265579182015b828111156200026457825182559160200191906001019062000247565b5b50905062000274919062000278565b5090565b5b808211156200029357600081600090555060010162000279565b5090565b7f4e487b7100000000000000000000000000000000000000000000000000000000600052602260045260246000fd5b60006002820490506001821680620002df57607f821691505b602082108103620002f557620002f462000297565b5b50919050565b615d81806200030b6000396000f3fe608060405234801561001057600080fd5b506004361061027f5760003560e01c8063715018a61161015c578063b2a0cde8116100ce578063e985e9c511610087578063e985e9c514610892578063f1e8cca9146108c2578063f2fde38b146108f2578063f851a4401461090e578063fa448a4b1461092c578063fe4b609b1461095f5761027f565b8063b2a0cde81461079a578063b57447cc146107ca578063b88d4fde146107e6578063c87b56dd14610802578063dc4b415614610832578063e96adc1b146108625761027f565b806395d89b411161012057806395d89b41146106c8578063a22cb465146106e6578063a241cefd14610702578063a41103ba1461071e578063a4ccdc851461073a578063ab35ab021461076a5761027f565b8063715018a61461062457806381c159831461062e578063851673f71461065e5780638a0807b71461067a5780638da5cb5b146106aa5761027f565b80632d2ea6c5116101f557806346bdca9a116101b957806346bdca9a146105045780634d1bf4a8146105345780634f494caf146105645780636352211e1461059457806368f50d63146105c457806370a08231146105f45761027f565b80632d2ea6c51461043c5780632f20765e1461046c5780633a96fdd71461049c57806342842e0e146104cc57806343bb0f4f146104e85761027f565b80631cfb8709116102475780631cfb87091461033a57806323b872dd1461036a57806327a93ebd146103865780632a76873b146103c05780632b88a3c3146103f05780632bdc9c58146104205761027f565b806301ffc9a71461028457806306fdde03146102b4578063081812fc146102d2578063095ea7b314610302578063173003511461031e575b600080fd5b61029e60048036038101906102999190613fda565b61097b565b6040516102ab9190614022565b60405180910390f35b6102bc610a5d565b6040516102c991906140d6565b60405180910390f35b6102ec60048036038101906102e7919061412e565b610aef565b6040516102f9919061419c565b60405180910390f35b61031c600480360381019061031791906141e3565b610b74565b005b61033860048036038101906103339190614394565b610c8b565b005b610354600480360381019061034f919061441f565b610fd5565b6040516103619190614477565b60405180910390f35b610384600480360381019061037f9190614492565b611010565b005b6103a0600480360381019061039b919061441f565b611070565b6040516103b79b9a99989796959493929190614510565b60405180910390f35b6103da60048036038101906103d5919061441f565b6112d2565b6040516103e791906140d6565b60405180910390f35b61040a6004803603810190610405919061441f565b611385565b6040516104179190614477565b60405180910390f35b61043a6004803603810190610435919061441f565b6113c0565b005b6104566004803603810190610451919061441f565b6114f6565b6040516104639190614022565b60405180910390f35b6104866004803603810190610481919061441f565b61152e565b60405161049391906140d6565b60405180910390f35b6104b660048036038101906104b191906145d0565b6115e1565b6040516104c39190614661565b60405180910390f35b6104e660048036038101906104e19190614492565b6117bd565b005b61050260048036038101906104fd91906146a8565b6117dd565b005b61051e600480360381019061051991906145d0565b61192f565b60405161052b9190614022565b60405180910390f35b61054e6004803603810190610549919061441f565b611945565b60405161055b9190614717565b60405180910390f35b61057e6004803603810190610579919061441f565b61197d565b60405161058b919061419c565b60405180910390f35b6105ae60048036038101906105a9919061412e565b6119b0565b6040516105bb919061419c565b60405180910390f35b6105de60048036038101906105d9919061441f565b611a61565b6040516105eb919061419c565b60405180910390f35b61060e60048036038101906106099190614732565b611aac565b60405161061b919061475f565b60405180910390f35b61062c611b63565b005b6106486004803603810190610643919061441f565b611beb565b6040516106559190614022565b60405180910390f35b6106786004803603810190610673919061441f565b611c34565b005b610694600480360381019061068f91906145d0565b611dc5565b6040516106a19190614661565b60405180910390f35b6106b2612014565b6040516106bf919061419c565b60405180910390f35b6106d061203e565b6040516106dd91906140d6565b60405180910390f35b61070060048036038101906106fb91906147a6565b6120d0565b005b61071c60048036038101906107179190614732565b6120e6565b005b6107386004803603810190610733919061441f565b6121a6565b005b610754600480360381019061074f919061441f565b61236b565b60405161076191906140d6565b60405180910390f35b610784600480360381019061077f919061441f565b61241e565b604051610791919061475f565b60405180910390f35b6107b460048036038101906107af919061441f565b612449565b6040516107c19190614477565b60405180910390f35b6107e460048036038101906107df91906146a8565b612484565b005b61080060048036038101906107fb9190614887565b61264e565b005b61081c6004803603810190610817919061412e565b6126b0565b60405161082991906140d6565b60405180910390f35b61084c6004803603810190610847919061441f565b6126c2565b6040516108599190614477565b60405180910390f35b61087c6004803603810190610877919061441f565b6126fd565b6040516108899190614717565b60405180910390f35b6108ac60048036038101906108a7919061490a565b612735565b6040516108b99190614022565b60405180910390f35b6108dc60048036038101906108d7919061441f565b6127c9565b6040516108e991906140d6565b60405180910390f35b61090c60048036038101906109079190614732565b61287c565b005b610916612973565b604051610923919061419c565b60405180910390f35b6109466004803603810190610941919061441f565b612999565b604051610956949392919061494a565b60405180910390f35b61097960048036038101906109749190614996565b612aa1565b005b60007f80ac58cd000000000000000000000000000000000000000000000000000000007bffffffffffffffffffffffffffffffffffffffffffffffffffffffff1916827bffffffffffffffffffffffffffffffffffffffffffffffffffffffff19161480610a4657507f5b5e139f000000000000000000000000000000000000000000000000000000007bffffffffffffffffffffffffffffffffffffffffffffffffffffffff1916827bffffffffffffffffffffffffffffffffffffffffffffffffffffffff1916145b80610a565750610a5582612d17565b5b9050919050565b606060008054610a6c90614abb565b80601f0160208091040260200160405190810160405280929190818152602001828054610a9890614abb565b8015610ae55780601f10610aba57610100808354040283529160200191610ae5565b820191906000526020600020905b815481529060010190602001808311610ac857829003601f168201915b5050505050905090565b6000610afa82612d81565b610b39576040517f08c379a0000000000000000000000000000000000000000000000000000000008152600401610b3090614b5e565b60405180910390fd5b6004600083815260200190815260200160002060009054906101000a900473ffffffffffffffffffffffffffffffffffffffff169050919050565b6000610b7f826119b0565b90508073ffffffffffffffffffffffffffffffffffffffff168373ffffffffffffffffffffffffffffffffffffffff1603610bef576040517f08c379a0000000000000000000000000000000000000000000000000000000008152600401610be690614bf0565b60405180910390fd5b8073ffffffffffffffffffffffffffffffffffffffff16610c0e612ded565b73ffffffffffffffffffffffffffffffffffffffff161480610c3d5750610c3c81610c37612ded565b612735565b5b610c7c576040517f08c379a0000000000000000000000000000000000000000000000000000000008152600401610c7390614c82565b60405180910390fd5b610c868383612df5565b505050565b60011515610c9884611beb565b1515148015610cb657506000610cad83612449565b63ffffffff1614155b15610f9a576000610cde610cc9856127c9565b604051806020016040528060008152506115e1565b03610f5f57600b82604051610cf39190614cde565b9081526020016040518091039020600201600c9054906101000a900460ff1660ff16610d1e846126fd565b60ff1611610f245760001515600b83604051610d3a9190614cde565b908152602001604051809103902060050160009054906101000a900460ff16151503610ee9576001600b83604051610d729190614cde565b908152602001604051809103902060050160006101000a81548160ff02191690831515021790555080600b83604051610dab9190614cde565b9081526020016040518091039020600201600d6101000a81548163ffffffff021916908363ffffffff16021790555082600b83604051610deb9190614cde565b90815260200160405180910390206004019080519060200190610e0f929190613e8b565b5042600b83604051610e219190614cde565b908152602001604051809103902060030181905550610ea333600985604051610e4a9190614cde565b908152602001604051809103902060000160019054906101000a900473ffffffffffffffffffffffffffffffffffffffff16600b85604051610e8c9190614cde565b908152602001604051809103902060060154612eae565b610ead8383612ebe565b7f39b8d23135cdeca3f85b347e5285f40c9b1de764cf9f8126e7f3b34d77ff0cf082604051610edc9190614d41565b60405180910390a1610f1f565b7f39b8d23135cdeca3f85b347e5285f40c9b1de764cf9f8126e7f3b34d77ff0cf0604051610f1690614e0e565b60405180910390a15b610f5a565b7f39b8d23135cdeca3f85b347e5285f40c9b1de764cf9f8126e7f3b34d77ff0cf0604051610f5190614e8d565b60405180910390a15b610f95565b7f39b8d23135cdeca3f85b347e5285f40c9b1de764cf9f8126e7f3b34d77ff0cf0604051610f8c90614f0c565b60405180910390a15b610fd0565b7f39b8d23135cdeca3f85b347e5285f40c9b1de764cf9f8126e7f3b34d77ff0cf0604051610fc790614f8b565b60405180910390a15b505050565b6000600b82604051610fe79190614cde565b908152602001604051809103902060020160089054906101000a900463ffffffff169050919050565b61102161101b612ded565b82612ef8565b611060576040517f08c379a000000000000000000000000000000000000000000000000000000000815260040161105790615030565b60405180910390fd5b61106b838383612fd6565b505050565b600b818051602081018201805184825260208301602085012081835280955050505050506000915090508060000180546110a990614abb565b80601f01602080910402602001604051908101604052809291908181526020018280546110d590614abb565b80156111225780601f106110f757610100808354040283529160200191611122565b820191906000526020600020905b81548152906001019060200180831161110557829003601f168201915b50505050509080600101805461113790614abb565b80601f016020809104026020016040519081016040528092919081815260200182805461116390614abb565b80156111b05780601f10611185576101008083540402835291602001916111b0565b820191906000526020600020905b81548152906001019060200180831161119357829003601f168201915b5050505050908060020160009054906101000a900463ffffffff16908060020160049054906101000a900463ffffffff16908060020160089054906101000a900463ffffffff169080600201600c9054906101000a900460ff169080600201600d9054906101000a900463ffffffff169080600301549080600401805461123690614abb565b80601f016020809104026020016040519081016040528092919081815260200182805461126290614abb565b80156112af5780601f10611284576101008083540402835291602001916112af565b820191906000526020600020905b81548152906001019060200180831161129257829003601f168201915b5050505050908060050160009054906101000a900460ff1690806006015490508b565b6060600b826040516112e49190614cde565b9081526020016040518091039020600101805461130090614abb565b80601f016020809104026020016040519081016040528092919081815260200182805461132c90614abb565b80156113795780601f1061134e57610100808354040283529160200191611379565b820191906000526020600020905b81548152906001019060200180831161135c57829003601f168201915b50505050509050919050565b6000600b826040516113979190614cde565b908152602001604051809103902060020160049054906101000a900463ffffffff169050919050565b6113c8612ded565b73ffffffffffffffffffffffffffffffffffffffff166113e6612014565b73ffffffffffffffffffffffffffffffffffffffff161461143c576040517f08c379a00000000000000000000000000000000000000000000000000000000081526004016114339061509c565b60405180910390fd5b60098160405161144c9190614cde565b9081526020016040518091039020600080820160006101000a81549060ff02191690556000820160016101000a81549073ffffffffffffffffffffffffffffffffffffffff02191690556001820160006114a69190613f11565b6002820160006101000a81549060ff021916905550507f39b8d23135cdeca3f85b347e5285f40c9b1de764cf9f8126e7f3b34d77ff0cf0816040516114eb9190615108565b60405180910390a150565b6000600b826040516115089190614cde565b908152602001604051809103902060050160009054906101000a900460ff169050919050565b6060600b826040516115409190614cde565b9081526020016040518091039020600001805461155c90614abb565b80601f016020809104026020016040519081016040528092919081815260200182805461158890614abb565b80156115d55780601f106115aa576101008083540402835291602001916115d5565b820191906000526020600020905b8154815290600101906020018083116115b857829003601f168201915b50505050509050919050565b6000808390506000839050600082519050808251101561160057815190505b60005b818110156117635782818151811061161e5761161d61513d565b5b602001015160f81c60f81b7effffffffffffffffffffffffffffffffffffffffffffffffffffffffffffff191684828151811061165e5761165d61513d565b5b602001015160f81c60f81b7effffffffffffffffffffffffffffffffffffffffffffffffffffffffffffff191610156116bd577fffffffffffffffffffffffffffffffffffffffffffffffffffffffffffffffff9450505050506117b7565b8281815181106116d0576116cf61513d565b5b602001015160f81c60f81b7effffffffffffffffffffffffffffffffffffffffffffffffffffffffffffff19168482815181106117105761170f61513d565b5b602001015160f81c60f81b7effffffffffffffffffffffffffffffffffffffffffffffffffffffffffffff191611156117505760019450505050506117b7565b808061175b9061519b565b915050611603565b50815183511015611799577fffffffffffffffffffffffffffffffffffffffffffffffffffffffffffffffff93505050506117b7565b8151835111156117af57600193505050506117b7565b600093505050505b92915050565b6117d88383836040518060200160405280600081525061264e565b505050565b6117e5612ded565b73ffffffffffffffffffffffffffffffffffffffff16611803612014565b73ffffffffffffffffffffffffffffffffffffffff1614611859576040517f08c379a00000000000000000000000000000000000000000000000000000000081526004016118509061509c565b60405180910390fd5b8160098460405161186a9190614cde565b908152602001604051809103902060000160006101000a81548160ff021916908360ff160217905550806009846040516118a49190614cde565b908152602001604051809103902060000160016101000a81548173ffffffffffffffffffffffffffffffffffffffff021916908373ffffffffffffffffffffffffffffffffffffffff1602179055507f39b8d23135cdeca3f85b347e5285f40c9b1de764cf9f8126e7f3b34d77ff0cf083604051611922919061522f565b60405180910390a1505050565b60008061193c84846115e1565b14905092915050565b6000600b826040516119579190614cde565b9081526020016040518091039020600201600c9054906101000a900460ff169050919050565b60006119a9600b836040516119929190614cde565b9081526020016040518091039020600601546119b0565b9050919050565b6000806002600084815260200190815260200160002060009054906101000a900473ffffffffffffffffffffffffffffffffffffffff169050600073ffffffffffffffffffffffffffffffffffffffff168173ffffffffffffffffffffffffffffffffffffffff1603611a58576040517f08c379a0000000000000000000000000000000000000000000000000000000008152600401611a4f906152d6565b60405180910390fd5b80915050919050565b6000600982604051611a739190614cde565b908152602001604051809103902060000160019054906101000a900473ffffffffffffffffffffffffffffffffffffffff169050919050565b60008073ffffffffffffffffffffffffffffffffffffffff168273ffffffffffffffffffffffffffffffffffffffff1603611b1c576040517f08c379a0000000000000000000000000000000000000000000000000000000008152600401611b1390615368565b60405180910390fd5b600360008373ffffffffffffffffffffffffffffffffffffffff1673ffffffffffffffffffffffffffffffffffffffff168152602001908152602001600020549050919050565b611b6b612ded565b73ffffffffffffffffffffffffffffffffffffffff16611b89612014565b73ffffffffffffffffffffffffffffffffffffffff1614611bdf576040517f08c379a0000000000000000000000000000000000000000000000000000000008152600401611bd69061509c565b60405180910390fd5b611be9600061323c565b565b6000600982604051611bfd9190614cde565b908152602001604051809103902060020160009054906101000a900460ff1615611c2a5760019050611c2f565b600090505b919050565b6000611c3f826127c9565b90506000611c5c82604051806020016040528060008152506115e1565b14611d8b57611cb7611c6d83611a61565b600a60009054906101000a900473ffffffffffffffffffffffffffffffffffffffff16600b84604051611ca09190614cde565b908152602001604051809103902060060154611010565b6000600b82604051611cc99190614cde565b908152602001604051809103902060050160006101000a81548160ff02191690831515021790555060405180602001604052806000815250600983604051611d119190614cde565b90815260200160405180910390206001019080519060200190611d35929190613e8b565b50611d4f8260405180602001604052806000815250612ebe565b7f39b8d23135cdeca3f85b347e5285f40c9b1de764cf9f8126e7f3b34d77ff0cf081604051611d7e91906153d4565b60405180910390a1611dc1565b7f39b8d23135cdeca3f85b347e5285f40c9b1de764cf9f8126e7f3b34d77ff0cf0604051611db8906154a1565b60405180910390a15b5050565b6000808390506000839050600182511080611de1575060018151105b80611ded575081518151115b15611e1c577fffffffffffffffffffffffffffffffffffffffffffffffffffffffffffffffff9250505061200e565b6fffffffffffffffffffffffffffffffff82511115611e5f577fffffffffffffffffffffffffffffffffffffffffffffffffffffffffffffffff9250505061200e565b6000805b8351811015611fe65782600081518110611e8057611e7f61513d565b5b602001015160f81c60f81b7effffffffffffffffffffffffffffffffffffffffffffffffffffffffffffff1916848281518110611ec057611ebf61513d565b5b602001015160f81c60f81b7effffffffffffffffffffffffffffffffffffffffffffffffffffffffffffff191603611fd357600191505b825182108015611f12575083518282611f1091906154d4565b105b8015611fa65750828281518110611f2c57611f2b61513d565b5b602001015160f81c60f81b7effffffffffffffffffffffffffffffffffffffffffffffffffffffffffffff1916848383611f6691906154d4565b81518110611f7757611f7661513d565b5b602001015160f81c60f81b7effffffffffffffffffffffffffffffffffffffffffffffffffffffffffffff1916145b15611fbe578180611fb69061519b565b925050611ef7565b82518203611fd2578094505050505061200e565b5b8080611fde9061519b565b915050611e63565b507fffffffffffffffffffffffffffffffffffffffffffffffffffffffffffffffff93505050505b92915050565b6000600760009054906101000a900473ffffffffffffffffffffffffffffffffffffffff16905090565b60606001805461204d90614abb565b80601f016020809104026020016040519081016040528092919081815260200182805461207990614abb565b80156120c65780601f1061209b576101008083540402835291602001916120c6565b820191906000526020600020905b8154815290600101906020018083116120a957829003601f168201915b5050505050905090565b6120e26120db612ded565b8383613302565b5050565b6120ee612ded565b73ffffffffffffffffffffffffffffffffffffffff1661210c612014565b73ffffffffffffffffffffffffffffffffffffffff1614612162576040517f08c379a00000000000000000000000000000000000000000000000000000000081526004016121599061509c565b60405180910390fd5b80600a60006101000a81548173ffffffffffffffffffffffffffffffffffffffff021916908373ffffffffffffffffffffffffffffffffffffffff16021790555050565b6121ae612ded565b73ffffffffffffffffffffffffffffffffffffffff166121cc612014565b73ffffffffffffffffffffffffffffffffffffffff1614612222576040517f08c379a00000000000000000000000000000000000000000000000000000000081526004016122199061509c565b60405180910390fd5b61224c600b826040516122359190614cde565b90815260200160405180910390206006015461346e565b600b8160405161225c9190614cde565b90815260200160405180910390206000808201600061227b9190613f11565b60018201600061228b9190613f11565b6002820160006101000a81549063ffffffff02191690556002820160046101000a81549063ffffffff02191690556002820160086101000a81549063ffffffff021916905560028201600c6101000a81549060ff021916905560028201600d6101000a81549063ffffffff021916905560038201600090556004820160006123139190613f11565b6005820160006101000a81549060ff0219169055600682016000905550507f39b8d23135cdeca3f85b347e5285f40c9b1de764cf9f8126e7f3b34d77ff0cf0816040516123609190615108565b60405180910390a150565b6060600b8260405161237d9190614cde565b9081526020016040518091039020600401805461239990614abb565b80601f01602080910402602001604051908101604052809291908181526020018280546123c590614abb565b80156124125780601f106123e757610100808354040283529160200191612412565b820191906000526020600020905b8154815290600101906020018083116123f557829003601f168201915b50505050509050919050565b6000600b826040516124309190614cde565b9081526020016040518091039020600301549050919050565b6000600b8260405161245b9190614cde565b908152602001604051809103902060020160009054906101000a900463ffffffff169050919050565b61248c612ded565b73ffffffffffffffffffffffffffffffffffffffff166124aa612014565b73ffffffffffffffffffffffffffffffffffffffff1614612500576040517f08c379a00000000000000000000000000000000000000000000000000000000081526004016124f79061509c565b60405180910390fd5b60405180608001604052808360ff1681526020018273ffffffffffffffffffffffffffffffffffffffff1681526020016040518060200160405280600081525081526020016001151581525060098460405161255c9190614cde565b908152602001604051809103902060008201518160000160006101000a81548160ff021916908360ff16021790555060208201518160000160016101000a81548173ffffffffffffffffffffffffffffffffffffffff021916908373ffffffffffffffffffffffffffffffffffffffff16021790555060408201518160010190805190602001906125ee929190613e8b565b5060608201518160020160006101000a81548160ff0219169083151502179055509050507f39b8d23135cdeca3f85b347e5285f40c9b1de764cf9f8126e7f3b34d77ff0cf0836040516126419190615576565b60405180910390a1505050565b61265f612659612ded565b83612ef8565b61269e576040517f08c379a000000000000000000000000000000000000000000000000000000000815260040161269590615030565b60405180910390fd5b6126aa8484848461347a565b50505050565b60606126bb826134d6565b9050919050565b6000600b826040516126d49190614cde565b9081526020016040518091039020600201600d9054906101000a900463ffffffff169050919050565b600060098260405161270f9190614cde565b908152602001604051809103902060000160009054906101000a900460ff169050919050565b6000600560008473ffffffffffffffffffffffffffffffffffffffff1673ffffffffffffffffffffffffffffffffffffffff16815260200190815260200160002060008373ffffffffffffffffffffffffffffffffffffffff1673ffffffffffffffffffffffffffffffffffffffff16815260200190815260200160002060009054906101000a900460ff16905092915050565b60606009826040516127db9190614cde565b908152602001604051809103902060010180546127f790614abb565b80601f016020809104026020016040519081016040528092919081815260200182805461282390614abb565b80156128705780601f1061284557610100808354040283529160200191612870565b820191906000526020600020905b81548152906001019060200180831161285357829003601f168201915b50505050509050919050565b612884612ded565b73ffffffffffffffffffffffffffffffffffffffff166128a2612014565b73ffffffffffffffffffffffffffffffffffffffff16146128f8576040517f08c379a00000000000000000000000000000000000000000000000000000000081526004016128ef9061509c565b60405180910390fd5b600073ffffffffffffffffffffffffffffffffffffffff168173ffffffffffffffffffffffffffffffffffffffff1603612967576040517f08c379a000000000000000000000000000000000000000000000000000000000815260040161295e9061561d565b60405180910390fd5b6129708161323c565b50565b600a60009054906101000a900473ffffffffffffffffffffffffffffffffffffffff1681565b6009818051602081018201805184825260208301602085012081835280955050505050506000915090508060000160009054906101000a900460ff16908060000160019054906101000a900473ffffffffffffffffffffffffffffffffffffffff1690806001018054612a0b90614abb565b80601f0160208091040260200160405190810160405280929190818152602001828054612a3790614abb565b8015612a845780601f10612a5957610100808354040283529160200191612a84565b820191906000526020600020905b815481529060010190602001808311612a6757829003601f168201915b5050505050908060020160009054906101000a900460ff16905084565b6040518061016001604052808781526020018681526020018563ffffffff1681526020018463ffffffff1681526020018363ffffffff1681526020018260ff1681526020018363ffffffff1681526020014281526020016040518060400160405280600181526020017f20000000000000000000000000000000000000000000000000000000000000008152508152602001600015158152602001612b68600a60009054906101000a900473ffffffffffffffffffffffffffffffffffffffff168a613627565b815250600b88604051612b7b9190614cde565b90815260200160405180910390206000820151816000019080519060200190612ba5929190613e8b565b506020820151816001019080519060200190612bc2929190613e8b565b5060408201518160020160006101000a81548163ffffffff021916908363ffffffff16021790555060608201518160020160046101000a81548163ffffffff021916908363ffffffff16021790555060808201518160020160086101000a81548163ffffffff021916908363ffffffff16021790555060a082015181600201600c6101000a81548160ff021916908360ff16021790555060c082015181600201600d6101000a81548163ffffffff021916908363ffffffff16021790555060e08201518160030155610100820151816004019080519060200190612ca7929190613e8b565b506101208201518160050160006101000a81548160ff02191690831515021790555061014082015181600601559050507f39b8d23135cdeca3f85b347e5285f40c9b1de764cf9f8126e7f3b34d77ff0cf087604051612d069190615576565b60405180910390a150505050505050565b60007f01ffc9a7000000000000000000000000000000000000000000000000000000007bffffffffffffffffffffffffffffffffffffffffffffffffffffffff1916827bffffffffffffffffffffffffffffffffffffffffffffffffffffffff1916149050919050565b60008073ffffffffffffffffffffffffffffffffffffffff166002600084815260200190815260200160002060009054906101000a900473ffffffffffffffffffffffffffffffffffffffff1673ffffffffffffffffffffffffffffffffffffffff1614159050919050565b600033905090565b816004600083815260200190815260200160002060006101000a81548173ffffffffffffffffffffffffffffffffffffffff021916908373ffffffffffffffffffffffffffffffffffffffff160217905550808273ffffffffffffffffffffffffffffffffffffffff16612e68836119b0565b73ffffffffffffffffffffffffffffffffffffffff167f8c5be1e5ebec7d5bd14f71427d1e84f3dd0314c0f7b2291e5b200ac8c7c3b92560405160405180910390a45050565b612eb9838383611010565b505050565b80600983604051612ecf9190614cde565b90815260200160405180910390206001019080519060200190612ef3929190613e8b565b505050565b6000612f0382612d81565b612f42576040517f08c379a0000000000000000000000000000000000000000000000000000000008152600401612f39906156af565b60405180910390fd5b6000612f4d836119b0565b90508073ffffffffffffffffffffffffffffffffffffffff168473ffffffffffffffffffffffffffffffffffffffff161480612f8f5750612f8e8185612735565b5b80612fcd57508373ffffffffffffffffffffffffffffffffffffffff16612fb584610aef565b73ffffffffffffffffffffffffffffffffffffffff16145b91505092915050565b8273ffffffffffffffffffffffffffffffffffffffff16612ff6826119b0565b73ffffffffffffffffffffffffffffffffffffffff161461304c576040517f08c379a000000000000000000000000000000000000000000000000000000000815260040161304390615741565b60405180910390fd5b600073ffffffffffffffffffffffffffffffffffffffff168273ffffffffffffffffffffffffffffffffffffffff16036130bb576040517f08c379a00000000000000000000000000000000000000000000000000000000081526004016130b2906157d3565b60405180910390fd5b6130c683838361365f565b6130d1600082612df5565b6001600360008573ffffffffffffffffffffffffffffffffffffffff1673ffffffffffffffffffffffffffffffffffffffff168152602001908152602001600020600082825461312191906157f3565b925050819055506001600360008473ffffffffffffffffffffffffffffffffffffffff1673ffffffffffffffffffffffffffffffffffffffff168152602001908152602001600020600082825461317891906154d4565b92505081905550816002600083815260200190815260200160002060006101000a81548173ffffffffffffffffffffffffffffffffffffffff021916908373ffffffffffffffffffffffffffffffffffffffff160217905550808273ffffffffffffffffffffffffffffffffffffffff168473ffffffffffffffffffffffffffffffffffffffff167fddf252ad1be2c89b69c2b068fc378daa952ba7f163c4a11628f55a4df523b3ef60405160405180910390a4613237838383613664565b505050565b6000600760009054906101000a900473ffffffffffffffffffffffffffffffffffffffff16905081600760006101000a81548173ffffffffffffffffffffffffffffffffffffffff021916908373ffffffffffffffffffffffffffffffffffffffff1602179055508173ffffffffffffffffffffffffffffffffffffffff168173ffffffffffffffffffffffffffffffffffffffff167f8be0079c531659141344cd1fd0a4f28419497f9722a3daafe3b4186f6b6457e060405160405180910390a35050565b8173ffffffffffffffffffffffffffffffffffffffff168373ffffffffffffffffffffffffffffffffffffffff1603613370576040517f08c379a000000000000000000000000000000000000000000000000000000000815260040161336790615873565b60405180910390fd5b80600560008573ffffffffffffffffffffffffffffffffffffffff1673ffffffffffffffffffffffffffffffffffffffff16815260200190815260200160002060008473ffffffffffffffffffffffffffffffffffffffff1673ffffffffffffffffffffffffffffffffffffffff16815260200190815260200160002060006101000a81548160ff0219169083151502179055508173ffffffffffffffffffffffffffffffffffffffff168373ffffffffffffffffffffffffffffffffffffffff167f17307eab39ab6107e8899845ad3d59bd9653f200f220920489ca2b5937696c31836040516134619190614022565b60405180910390a3505050565b61347781613669565b50565b613485848484612fd6565b613491848484846136bc565b6134d0576040517f08c379a00000000000000000000000000000000000000000000000000000000081526004016134c790615905565b60405180910390fd5b50505050565b60606134e182612d81565b613520576040517f08c379a000000000000000000000000000000000000000000000000000000000815260040161351790615997565b60405180910390fd5b600060066000848152602001908152602001600020805461354090614abb565b80601f016020809104026020016040519081016040528092919081815260200182805461356c90614abb565b80156135b95780601f1061358e576101008083540402835291602001916135b9565b820191906000526020600020905b81548152906001019060200180831161359c57829003601f168201915b5050505050905060006135ca613843565b905060008151036135df578192505050613622565b6000825111156136145780826040516020016135fc9291906159b7565b60405160208183030381529060405292505050613622565b61361d8461385a565b925050505b919050565b60006136336008613901565b600061363f6008613917565b905061364b8482613925565b6136558184613943565b8091505092915050565b505050565b505050565b613672816139b7565b600060066000838152602001908152602001600020805461369290614abb565b9050146136b9576006600082815260200190815260200160002060006136b89190613f11565b5b50565b60006136dd8473ffffffffffffffffffffffffffffffffffffffff16613ad4565b15613836578373ffffffffffffffffffffffffffffffffffffffff1663150b7a02613706612ded565b8786866040518563ffffffff1660e01b81526004016137289493929190615a30565b6020604051808303816000875af192505050801561376457506040513d601f19601f820116820180604052508101906137619190615a91565b60015b6137e6573d8060008114613794576040519150601f19603f3d011682016040523d82523d6000602084013e613799565b606091505b5060008151036137de576040517f08c379a00000000000000000000000000000000000000000000000000000000081526004016137d590615905565b60405180910390fd5b805181602001fd5b63150b7a0260e01b7bffffffffffffffffffffffffffffffffffffffffffffffffffffffff1916817bffffffffffffffffffffffffffffffffffffffffffffffffffffffff19161491505061383b565b600190505b949350505050565b606060405180602001604052806000815250905090565b606061386582612d81565b6138a4576040517f08c379a000000000000000000000000000000000000000000000000000000000815260040161389b90615b30565b60405180910390fd5b60006138ae613843565b905060008151116138ce57604051806020016040528060008152506138f9565b806138d884613af7565b6040516020016138e99291906159b7565b6040516020818303038152906040525b915050919050565b6001816000016000828254019250508190555050565b600081600001549050919050565b61393f828260405180602001604052806000815250613c57565b5050565b61394c82612d81565b61398b576040517f08c379a000000000000000000000000000000000000000000000000000000000815260040161398290615bc2565b60405180910390fd5b806006600084815260200190815260200160002090805190602001906139b2929190613e8b565b505050565b60006139c2826119b0565b90506139d08160008461365f565b6139db600083612df5565b6001600360008373ffffffffffffffffffffffffffffffffffffffff1673ffffffffffffffffffffffffffffffffffffffff1681526020019081526020016000206000828254613a2b91906157f3565b925050819055506002600083815260200190815260200160002060006101000a81549073ffffffffffffffffffffffffffffffffffffffff021916905581600073ffffffffffffffffffffffffffffffffffffffff168273ffffffffffffffffffffffffffffffffffffffff167fddf252ad1be2c89b69c2b068fc378daa952ba7f163c4a11628f55a4df523b3ef60405160405180910390a4613ad081600084613664565b5050565b6000808273ffffffffffffffffffffffffffffffffffffffff163b119050919050565b606060008203613b3e576040518060400160405280600181526020017f30000000000000000000000000000000000000000000000000000000000000008152509050613c52565b600082905060005b60008214613b70578080613b599061519b565b915050600a82613b699190615c11565b9150613b46565b60008167ffffffffffffffff811115613b8c57613b8b61422d565b5b6040519080825280601f01601f191660200182016040528015613bbe5781602001600182028036833780820191505090505b5090505b60008514613c4b57600182613bd791906157f3565b9150600a85613be69190615c42565b6030613bf291906154d4565b60f81b818381518110613c0857613c0761513d565b5b60200101907effffffffffffffffffffffffffffffffffffffffffffffffffffffffffffff1916908160001a905350600a85613c449190615c11565b9450613bc2565b8093505050505b919050565b613c618383613cb2565b613c6e60008484846136bc565b613cad576040517f08c379a0000000000000000000000000000000000000000000000000000000008152600401613ca490615905565b60405180910390fd5b505050565b600073ffffffffffffffffffffffffffffffffffffffff168273ffffffffffffffffffffffffffffffffffffffff1603613d21576040517f08c379a0000000000000000000000000000000000000000000000000000000008152600401613d1890615cbf565b60405180910390fd5b613d2a81612d81565b15613d6a576040517f08c379a0000000000000000000000000000000000000000000000000000000008152600401613d6190615d2b565b60405180910390fd5b613d766000838361365f565b6001600360008473ffffffffffffffffffffffffffffffffffffffff1673ffffffffffffffffffffffffffffffffffffffff1681526020019081526020016000206000828254613dc691906154d4565b92505081905550816002600083815260200190815260200160002060006101000a81548173ffffffffffffffffffffffffffffffffffffffff021916908373ffffffffffffffffffffffffffffffffffffffff160217905550808273ffffffffffffffffffffffffffffffffffffffff16600073ffffffffffffffffffffffffffffffffffffffff167fddf252ad1be2c89b69c2b068fc378daa952ba7f163c4a11628f55a4df523b3ef60405160405180910390a4613e8760008383613664565b5050565b828054613e9790614abb565b90600052602060002090601f016020900481019282613eb95760008555613f00565b82601f10613ed257805160ff1916838001178555613f00565b82800160010185558215613f00579182015b82811115613eff578251825591602001919060010190613ee4565b5b509050613f0d9190613f51565b5090565b508054613f1d90614abb565b6000825580601f10613f2f5750613f4e565b601f016020900490600052602060002090810190613f4d9190613f51565b5b50565b5b80821115613f6a576000816000905550600101613f52565b5090565b6000604051905090565b600080fd5b600080fd5b60007fffffffff0000000000000000000000000000000000000000000000000000000082169050919050565b613fb781613f82565b8114613fc257600080fd5b50565b600081359050613fd481613fae565b92915050565b600060208284031215613ff057613fef613f78565b5b6000613ffe84828501613fc5565b91505092915050565b60008115159050919050565b61401c81614007565b82525050565b60006020820190506140376000830184614013565b92915050565b600081519050919050565b600082825260208201905092915050565b60005b8381101561407757808201518184015260208101905061405c565b83811115614086576000848401525b50505050565b6000601f19601f8301169050919050565b60006140a88261403d565b6140b28185614048565b93506140c2818560208601614059565b6140cb8161408c565b840191505092915050565b600060208201905081810360008301526140f0818461409d565b905092915050565b6000819050919050565b61410b816140f8565b811461411657600080fd5b50565b60008135905061412881614102565b92915050565b60006020828403121561414457614143613f78565b5b600061415284828501614119565b91505092915050565b600073ffffffffffffffffffffffffffffffffffffffff82169050919050565b60006141868261415b565b9050919050565b6141968161417b565b82525050565b60006020820190506141b1600083018461418d565b92915050565b6141c08161417b565b81146141cb57600080fd5b50565b6000813590506141dd816141b7565b92915050565b600080604083850312156141fa576141f9613f78565b5b6000614208858286016141ce565b925050602061421985828601614119565b9150509250929050565b600080fd5b600080fd5b7f4e487b7100000000000000000000000000000000000000000000000000000000600052604160045260246000fd5b6142658261408c565b810181811067ffffffffffffffff821117156142845761428361422d565b5b80604052505050565b6000614297613f6e565b90506142a3828261425c565b919050565b600067ffffffffffffffff8211156142c3576142c261422d565b5b6142cc8261408c565b9050602081019050919050565b82818337600083830152505050565b60006142fb6142f6846142a8565b61428d565b90508281526020810184848401111561431757614316614228565b5b6143228482856142d9565b509392505050565b600082601f83011261433f5761433e614223565b5b813561434f8482602086016142e8565b91505092915050565b600063ffffffff82169050919050565b61437181614358565b811461437c57600080fd5b50565b60008135905061438e81614368565b92915050565b6000806000606084860312156143ad576143ac613f78565b5b600084013567ffffffffffffffff8111156143cb576143ca613f7d565b5b6143d78682870161432a565b935050602084013567ffffffffffffffff8111156143f8576143f7613f7d565b5b6144048682870161432a565b92505060406144158682870161437f565b9150509250925092565b60006020828403121561443557614434613f78565b5b600082013567ffffffffffffffff81111561445357614452613f7d565b5b61445f8482850161432a565b91505092915050565b61447181614358565b82525050565b600060208201905061448c6000830184614468565b92915050565b6000806000606084860312156144ab576144aa613f78565b5b60006144b9868287016141ce565b93505060206144ca868287016141ce565b92505060406144db86828701614119565b9150509250925092565b600060ff82169050919050565b6144fb816144e5565b82525050565b61450a816140f8565b82525050565b600061016082019050818103600083015261452b818e61409d565b9050818103602083015261453f818d61409d565b905061454e604083018c614468565b61455b606083018b614468565b614568608083018a614468565b61457560a08301896144f2565b61458260c0830188614468565b61458f60e0830187614501565b8181036101008301526145a2818661409d565b90506145b2610120830185614013565b6145c0610140830184614501565b9c9b505050505050505050505050565b600080604083850312156145e7576145e6613f78565b5b600083013567ffffffffffffffff81111561460557614604613f7d565b5b6146118582860161432a565b925050602083013567ffffffffffffffff81111561463257614631613f7d565b5b61463e8582860161432a565b9150509250929050565b6000819050919050565b61465b81614648565b82525050565b60006020820190506146766000830184614652565b92915050565b614685816144e5565b811461469057600080fd5b50565b6000813590506146a28161467c565b92915050565b6000806000606084860312156146c1576146c0613f78565b5b600084013567ffffffffffffffff8111156146df576146de613f7d565b5b6146eb8682870161432a565b93505060206146fc86828701614693565b925050604061470d868287016141ce565b9150509250925092565b600060208201905061472c60008301846144f2565b92915050565b60006020828403121561474857614747613f78565b5b6000614756848285016141ce565b91505092915050565b60006020820190506147746000830184614501565b92915050565b61478381614007565b811461478e57600080fd5b50565b6000813590506147a08161477a565b92915050565b600080604083850312156147bd576147bc613f78565b5b60006147cb858286016141ce565b92505060206147dc85828601614791565b9150509250929050565b600067ffffffffffffffff8211156148015761480061422d565b5b61480a8261408c565b9050602081019050919050565b600061482a614825846147e6565b61428d565b90508281526020810184848401111561484657614845614228565b5b6148518482856142d9565b509392505050565b600082601f83011261486e5761486d614223565b5b813561487e848260208601614817565b91505092915050565b600080600080608085870312156148a1576148a0613f78565b5b60006148af878288016141ce565b94505060206148c0878288016141ce565b93505060406148d187828801614119565b925050606085013567ffffffffffffffff8111156148f2576148f1613f7d565b5b6148fe87828801614859565b91505092959194509250565b6000806040838503121561492157614920613f78565b5b600061492f858286016141ce565b9250506020614940858286016141ce565b9150509250929050565b600060808201905061495f60008301876144f2565b61496c602083018661418d565b818103604083015261497e818561409d565b905061498d6060830184614013565b95945050505050565b600080600080600080600060e0888a0312156149b5576149b4613f78565b5b600088013567ffffffffffffffff8111156149d3576149d2613f7d565b5b6149df8a828b0161432a565b975050602088013567ffffffffffffffff811115614a00576149ff613f7d565b5b614a0c8a828b0161432a565b965050604088013567ffffffffffffffff811115614a2d57614a2c613f7d565b5b614a398a828b0161432a565b9550506060614a4a8a828b0161437f565b9450506080614a5b8a828b0161437f565b93505060a0614a6c8a828b0161437f565b92505060c0614a7d8a828b01614693565b91505092959891949750929550565b7f4e487b7100000000000000000000000000000000000000000000000000000000600052602260045260246000fd5b60006002820490506001821680614ad357607f821691505b602082108103614ae657614ae5614a8c565b5b50919050565b7f4552433732313a20617070726f76656420717565727920666f72206e6f6e657860008201527f697374656e7420746f6b656e0000000000000000000000000000000000000000602082015250565b6000614b48602c83614048565b9150614b5382614aec565b604082019050919050565b60006020820190508181036000830152614b7781614b3b565b9050919050565b7f4552433732313a20617070726f76616c20746f2063757272656e74206f776e6560008201527f7200000000000000000000000000000000000000000000000000000000000000602082015250565b6000614bda602183614048565b9150614be582614b7e565b604082019050919050565b60006020820190508181036000830152614c0981614bcd565b9050919050565b7f4552433732313a20617070726f76652063616c6c6572206973206e6f74206f7760008201527f6e6572206e6f7220617070726f76656420666f7220616c6c0000000000000000602082015250565b6000614c6c603883614048565b9150614c7782614c10565b604082019050919050565b60006020820190508181036000830152614c9b81614c5f565b9050919050565b600081905092915050565b6000614cb88261403d565b614cc28185614ca2565b9350614cd2818560208601614059565b80840191505092915050565b6000614cea8284614cad565b915081905092915050565b7f5069636b65642075703a20000000000000000000000000000000000000000000600082015250565b6000614d2b600b83614048565b9150614d3682614cf5565b602082019050919050565b60006040820190508181036000830152614d5a81614d1e565b90508181036020830152614d6e818461409d565b905092915050565b7f4661696c6564205069636b757000000000000000000000000000000000000000600082015250565b6000614dac600d83614048565b9150614db782614d76565b602082019050919050565b7f436172206973206e6f7420667265650000000000000000000000000000000000600082015250565b6000614df8600f83614048565b9150614e0382614dc2565b602082019050919050565b60006040820190508181036000830152614e2781614d9f565b90508181036020830152614e3a81614deb565b9050919050565b7f496d70726f70657220636c656172616e63650000000000000000000000000000600082015250565b6000614e77601283614048565b9150614e8282614e41565b602082019050919050565b60006040820190508181036000830152614ea681614d9f565b90508181036020830152614eb981614e6a565b9050919050565b7f456d706c6f796565206861732061206361720000000000000000000000000000600082015250565b6000614ef6601283614048565b9150614f0182614ec0565b602082019050919050565b60006040820190508181036000830152614f2581614d9f565b90508181036020830152614f3881614ee9565b9050919050565b7f436172206f7220656d706c6f79656520646f6573206e6f742065786973740000600082015250565b6000614f75601e83614048565b9150614f8082614f3f565b602082019050919050565b60006040820190508181036000830152614fa481614d9f565b90508181036020830152614fb781614f68565b9050919050565b7f4552433732313a207472616e736665722063616c6c6572206973206e6f74206f60008201527f776e6572206e6f7220617070726f766564000000000000000000000000000000602082015250565b600061501a603183614048565b915061502582614fbe565b604082019050919050565b600060208201905081810360008301526150498161500d565b9050919050565b7f4f776e61626c653a2063616c6c6572206973206e6f7420746865206f776e6572600082015250565b6000615086602083614048565b915061509182615050565b602082019050919050565b600060208201905081810360008301526150b581615079565b9050919050565b7f44656c657465643a200000000000000000000000000000000000000000000000600082015250565b60006150f2600983614048565b91506150fd826150bc565b602082019050919050565b60006040820190508181036000830152615121816150e5565b90508181036020830152615135818461409d565b905092915050565b7f4e487b7100000000000000000000000000000000000000000000000000000000600052603260045260246000fd5b7f4e487b7100000000000000000000000000000000000000000000000000000000600052601160045260246000fd5b60006151a6826140f8565b91507fffffffffffffffffffffffffffffffffffffffffffffffffffffffffffffffff82036151d8576151d761516c565b5b600182019050919050565b7f4d6f6469666965643a2000000000000000000000000000000000000000000000600082015250565b6000615219600a83614048565b9150615224826151e3565b602082019050919050565b600060408201905081810360008301526152488161520c565b9050818103602083015261525c818461409d565b905092915050565b7f4552433732313a206f776e657220717565727920666f72206e6f6e657869737460008201527f656e7420746f6b656e0000000000000000000000000000000000000000000000602082015250565b60006152c0602983614048565b91506152cb82615264565b604082019050919050565b600060208201905081810360008301526152ef816152b3565b9050919050565b7f4552433732313a2062616c616e636520717565727920666f7220746865207a6560008201527f726f206164647265737300000000000000000000000000000000000000000000602082015250565b6000615352602a83614048565b915061535d826152f6565b604082019050919050565b6000602082019050818103600083015261538181615345565b9050919050565b7f44726f70706564206f66663a2000000000000000000000000000000000000000600082015250565b60006153be600d83614048565b91506153c982615388565b602082019050919050565b600060408201905081810360008301526153ed816153b1565b90508181036020830152615401818461409d565b905092915050565b7f43616e6e6f742062652064726f70706564206f663a0000000000000000000000600082015250565b600061543f601583614048565b915061544a82615409565b602082019050919050565b7f656d706c6f79656520686173206e6f2063617200000000000000000000000000600082015250565b600061548b601383614048565b915061549682615455565b602082019050919050565b600060408201905081810360008301526154ba81615432565b905081810360208301526154cd8161547e565b9050919050565b60006154df826140f8565b91506154ea836140f8565b9250827fffffffffffffffffffffffffffffffffffffffffffffffffffffffffffffffff0382111561551f5761551e61516c565b5b828201905092915050565b7f41646465643a2000000000000000000000000000000000000000000000000000600082015250565b6000615560600783614048565b915061556b8261552a565b602082019050919050565b6000604082019050818103600083015261558f81615553565b905081810360208301526155a3818461409d565b905092915050565b7f4f776e61626c653a206e6577206f776e657220697320746865207a65726f206160008201527f6464726573730000000000000000000000000000000000000000000000000000602082015250565b6000615607602683614048565b9150615612826155ab565b604082019050919050565b60006020820190508181036000830152615636816155fa565b9050919050565b7f4552433732313a206f70657261746f7220717565727920666f72206e6f6e657860008201527f697374656e7420746f6b656e0000000000000000000000000000000000000000602082015250565b6000615699602c83614048565b91506156a48261563d565b604082019050919050565b600060208201905081810360008301526156c88161568c565b9050919050565b7f4552433732313a207472616e736665722066726f6d20696e636f72726563742060008201527f6f776e6572000000000000000000000000000000000000000000000000000000602082015250565b600061572b602583614048565b9150615736826156cf565b604082019050919050565b6000602082019050818103600083015261575a8161571e565b9050919050565b7f4552433732313a207472616e7366657220746f20746865207a65726f2061646460008201527f7265737300000000000000000000000000000000000000000000000000000000602082015250565b60006157bd602483614048565b91506157c882615761565b604082019050919050565b600060208201905081810360008301526157ec816157b0565b9050919050565b60006157fe826140f8565b9150615809836140f8565b92508282101561581c5761581b61516c565b5b828203905092915050565b7f4552433732313a20617070726f766520746f2063616c6c657200000000000000600082015250565b600061585d601983614048565b915061586882615827565b602082019050919050565b6000602082019050818103600083015261588c81615850565b9050919050565b7f4552433732313a207472616e7366657220746f206e6f6e20455243373231526560008201527f63656976657220696d706c656d656e7465720000000000000000000000000000602082015250565b60006158ef603283614048565b91506158fa82615893565b604082019050919050565b6000602082019050818103600083015261591e816158e2565b9050919050565b7f45524337323155524953746f726167653a2055524920717565727920666f722060008201527f6e6f6e6578697374656e7420746f6b656e000000000000000000000000000000602082015250565b6000615981603183614048565b915061598c82615925565b604082019050919050565b600060208201905081810360008301526159b081615974565b9050919050565b60006159c38285614cad565b91506159cf8284614cad565b91508190509392505050565b600081519050919050565b600082825260208201905092915050565b6000615a02826159db565b615a0c81856159e6565b9350615a1c818560208601614059565b615a258161408c565b840191505092915050565b6000608082019050615a45600083018761418d565b615a52602083018661418d565b615a5f6040830185614501565b8181036060830152615a7181846159f7565b905095945050505050565b600081519050615a8b81613fae565b92915050565b600060208284031215615aa757615aa6613f78565b5b6000615ab584828501615a7c565b91505092915050565b7f4552433732314d657461646174613a2055524920717565727920666f72206e6f60008201527f6e6578697374656e7420746f6b656e0000000000000000000000000000000000602082015250565b6000615b1a602f83614048565b9150615b2582615abe565b604082019050919050565b60006020820190508181036000830152615b4981615b0d565b9050919050565b7f45524337323155524953746f726167653a2055524920736574206f66206e6f6e60008201527f6578697374656e7420746f6b656e000000000000000000000000000000000000602082015250565b6000615bac602e83614048565b9150615bb782615b50565b604082019050919050565b60006020820190508181036000830152615bdb81615b9f565b9050919050565b7f4e487b7100000000000000000000000000000000000000000000000000000000600052601260045260246000fd5b6000615c1c826140f8565b9150615c27836140f8565b925082615c3757615c36615be2565b5b828204905092915050565b6000615c4d826140f8565b9150615c58836140f8565b925082615c6857615c67615be2565b5b828206905092915050565b7f4552433732313a206d696e7420746f20746865207a65726f2061646472657373600082015250565b6000615ca9602083614048565b9150615cb482615c73565b602082019050919050565b60006020820190508181036000830152615cd881615c9c565b9050919050565b7f4552433732313a20746f6b656e20616c7265616479206d696e74656400000000600082015250565b6000615d15601c83614048565b9150615d2082615cdf565b602082019050919050565b60006020820190508181036000830152615d4481615d08565b905091905056fea26469706673582212201205654d62835dc9c8ffa1c3f880b93989aa5e179b44affcd6e54fc4afb9859b64736f6c634300080d0033",
  "immutableReferences": {},
  "source": "// SPDX-License-Identifier: MIT\r\npragma solidity ^0.8.4;\r\n\r\nimport \"./HR.sol\";\r\nimport \"./CarFactory.sol\";\r\nimport \"./StringUtils.sol\";\r\n\r\ncontract Garage is CarFactory, HR, StringUtils{\r\n    address public admin=msg.sender;\r\n    struct Car{\r\n        string make; \r\n        string modelID;\r\n        uint32 dateOfPurchase; //format yyyymmdd or similar\r\n        uint32 costOfPurchase; \r\n        uint32 milageWhenPurchased; //max is 4,294,967,295, should be enough for milage\r\n        uint8 category; //max is 255, 0 is for currently serviced or no longer used cars\r\n        uint32 currentMilage; \r\n        uint256 lastPickup;\r\n        string lastDriver;\r\n        bool occupied;\r\n        uint256 tokenID;}\r\n    mapping(string=>Car)public CarParameters;//registratonNumber => Car struct with parameters\r\n    function G_SwitchAdmin(address _admin) public onlyOwner{\r\n        admin=_admin;}\r\n    function G_AddCar(\r\n        string memory _registrationNumber,\r\n        string memory _make, \r\n        string memory _modelID,\r\n        uint32 _dateOfPurchase, //date format: \"20220101\" or similar, should not be 0\r\n        uint32 _costOfPurchase, \r\n        uint32 _milageWhenPurchased,\r\n        uint8 _category)public{\r\n        CarParameters[_registrationNumber]=Car( _make, _modelID, _dateOfPurchase, _costOfPurchase, _milageWhenPurchased,_category,_milageWhenPurchased,block.timestamp,\" \",false,F_safeMint(admin,_registrationNumber));\r\n        emit Event(\"Added: \", _registrationNumber);\r\n        }\r\n    function G_DeleteCar(string memory _registrationNumber)public onlyOwner{\r\n        F_DestroyCar(CarParameters[_registrationNumber].tokenID);\r\n        delete CarParameters[_registrationNumber];\r\n        emit Event(\"Deleted: \", _registrationNumber);\r\n        }\r\n    function G_PickupCar(string memory _name, string memory _registrationNumber, uint32 _currentMilage) public{\r\n        if(HR_IsEmployee(_name)==true&&G_GetDateOfPurchase(_registrationNumber)!=0){\r\n            if(compare(HR_GetDrivenCar(_name),\"\")==0){//emp does not have a car\r\n                if(HR_GetClearance(_name)<=CarParameters[_registrationNumber].category){//emp has proper clearance\r\n                    if(CarParameters[_registrationNumber].occupied==false){//car is free\r\n                        CarParameters[_registrationNumber].occupied=true;\r\n                        CarParameters[_registrationNumber].currentMilage=_currentMilage;\r\n                        CarParameters[_registrationNumber].lastDriver=_name;\r\n                        CarParameters[_registrationNumber].lastPickup=block.timestamp;\r\n                        F_TransferCar(msg.sender,EmployeeParameters[_name].walletAddress,CarParameters[_registrationNumber].tokenID);\r\n                        HR_SetDrivenCar(_name,_registrationNumber);\r\n                        emit Event(\"Picked up: \", _registrationNumber);\r\n                    }\r\n                    else{\r\n                        emit Event(\"Failed Pickup\",\"Car is not free\");\r\n                    }\r\n                }\r\n                else{\r\n                    emit Event(\"Failed Pickup\",\"Improper clearance\");\r\n                }\r\n            }\r\n            else{\r\n                emit Event(\"Failed Pickup\",\"Employee has a car\");\r\n            }\r\n            }\r\n        else{\r\n            emit Event(\"Failed Pickup\",\"Car or employee does not exist\");\r\n        }}\r\n    function G_DropoffCar(string memory _name) public{\r\n        string memory _registrationNumber=HR_GetDrivenCar(_name);//finds driven car and drops it off\r\n        if(StringUtils.compare(_registrationNumber,\"\")!=0){\r\n            transferFrom(HR_GetAddress(_name), admin, CarParameters[_registrationNumber].tokenID);\r\n            CarParameters[_registrationNumber].occupied=false;\r\n            EmployeeParameters[_name].drivenCar=\"\";\r\n            HR_SetDrivenCar(_name,\"\");\r\n            emit Event(\"Dropped off: \", _registrationNumber);\r\n        }\r\n        else{\r\n            emit Event(\"Cannot be dropped of:\", \"employee has no car\");\r\n        }\r\n    }\r\n    function G_GetMake(string memory _registrationNumber)public view returns (string memory){return CarParameters[_registrationNumber].make;}\r\n    function G_GetModelID(string memory _registrationNumber)public view returns (string memory){return CarParameters[_registrationNumber].modelID;}\r\n    function G_GetDateOfPurchase(string memory _registrationNumber)public view returns (uint32){return CarParameters[_registrationNumber].dateOfPurchase;}\r\n    function G_GetCostOfPurchase(string memory _registrationNumber)public view returns (uint32){return CarParameters[_registrationNumber].costOfPurchase;}\r\n    function G_GetMilageWhenPurchased(string memory _registrationNumber)public view returns (uint32){return CarParameters[_registrationNumber].milageWhenPurchased;}\r\n    function G_GetCategory(string memory _registrationNumber)public view returns (uint8){return CarParameters[_registrationNumber].category;}\r\n    function G_GetCurrentMilage(string memory _registrationNumber)public view returns (uint32){return CarParameters[_registrationNumber].currentMilage;}\r\n    function G_GetLastPickup(string memory _registrationNumber)public view returns (uint256){return CarParameters[_registrationNumber].lastPickup;}\r\n    function G_GetLastDriver(string memory _registrationNumber)public view returns (string memory){return CarParameters[_registrationNumber].lastDriver;}\r\n    function G_GetOccupied(string memory _registrationNumber)public view returns (bool){return CarParameters[_registrationNumber].occupied;}\r\n    function G_GetDriverAddress(string memory _registrationNumber)public view returns(address){return ownerOf(CarParameters[_registrationNumber].tokenID);}\r\n}\r\n",
  "sourcePath": "C:\\GM\\BME\\2. f\\BTA\\Project\\contracts\\Garage.sol",
  "compiler": {
    "name": "solc",
    "version": "0.8.13+commit.abaa5c0e.Emscripten.clang"
  },
  "schemaVersion": "3.4.7",
  "updatedAt": "2023-03-29T10:03:49.417Z",
  "devdoc": {
    "kind": "dev",
    "methods": {
      "approve(address,uint256)": {
        "details": "See {IERC721-approve}."
      },
      "balanceOf(address)": {
        "details": "See {IERC721-balanceOf}."
      },
      "compare(string,string)": {
        "details": "Does a byte-by-byte lexicographical comparison of two strings.",
        "returns": {
          "_0": "a negative number if `_a` is smaller, zero if they are equal and a positive numbe if `_b` is smaller."
        }
      },
      "equal(string,string)": {
        "details": "Compares two strings and returns true iff they are equal."
      },
      "getApproved(uint256)": {
        "details": "See {IERC721-getApproved}."
      },
      "indexOf(string,string)": {
        "details": "Finds the index of the first occurrence of _needle in _haystack"
      },
      "isApprovedForAll(address,address)": {
        "details": "See {IERC721-isApprovedForAll}."
      },
      "name()": {
        "details": "See {IERC721Metadata-name}."
      },
      "owner()": {
        "details": "Returns the address of the current owner."
      },
      "ownerOf(uint256)": {
        "details": "See {IERC721-ownerOf}."
      },
      "renounceOwnership()": {
        "details": "Leaves the contract without owner. It will not be possible to call `onlyOwner` functions anymore. Can only be called by the current owner. NOTE: Renouncing ownership will leave the contract without an owner, thereby removing any functionality that is only available to the owner."
      },
      "safeTransferFrom(address,address,uint256)": {
        "details": "See {IERC721-safeTransferFrom}."
      },
      "safeTransferFrom(address,address,uint256,bytes)": {
        "details": "See {IERC721-safeTransferFrom}."
      },
      "setApprovalForAll(address,bool)": {
        "details": "See {IERC721-setApprovalForAll}."
      },
      "supportsInterface(bytes4)": {
        "details": "See {IERC165-supportsInterface}."
      },
      "symbol()": {
        "details": "See {IERC721Metadata-symbol}."
      },
      "transferFrom(address,address,uint256)": {
        "details": "See {IERC721-transferFrom}."
      },
      "transferOwnership(address)": {
        "details": "Transfers ownership of the contract to a new account (`newOwner`). Can only be called by the current owner."
      }
    },
    "version": 1
  },
  "userdoc": {
    "kind": "user",
    "methods": {},
    "version": 1
  }
}