{
  "contractName": "HR",
  "abi": [
    {
      "anonymous": false,
      "inputs": [
        {
          "indexed": false,
          "internalType": "string",
          "name": "",
          "type": "string"
        },
        {
          "indexed": false,
          "internalType": "string",
          "name": "",
          "type": "string"
        }
      ],
      "name": "Event",
      "type": "event"
    },
    {
      "anonymous": false,
      "inputs": [
        {
          "indexed": true,
          "internalType": "address",
          "name": "previousOwner",
          "type": "address"
        },
        {
          "indexed": true,
          "internalType": "address",
          "name": "newOwner",
          "type": "address"
        }
      ],
      "name": "OwnershipTransferred",
      "type": "event"
    },
    {
      "inputs": [
        {
          "internalType": "string",
          "name": "",
          "type": "string"
        }
      ],
      "name": "EmployeeParameters",
      "outputs": [
        {
          "internalType": "uint8",
          "name": "clearance",
          "type": "uint8"
        },
        {
          "internalType": "address",
          "name": "walletAddress",
          "type": "address"
        },
        {
          "internalType": "string",
          "name": "drivenCar",
          "type": "string"
        },
        {
          "internalType": "bool",
          "name": "exists",
          "type": "bool"
        }
      ],
      "stateMutability": "view",
      "type": "function"
    },
    {
      "inputs": [],
      "name": "owner",
      "outputs": [
        {
          "internalType": "address",
          "name": "",
          "type": "address"
        }
      ],
      "stateMutability": "view",
      "type": "function"
    },
    {
      "inputs": [],
      "name": "renounceOwnership",
      "outputs": [],
      "stateMutability": "nonpayable",
      "type": "function"
    },
    {
      "inputs": [
        {
          "internalType": "address",
          "name": "newOwner",
          "type": "address"
        }
      ],
      "name": "transferOwnership",
      "outputs": [],
      "stateMutability": "nonpayable",
      "type": "function"
    },
    {
      "inputs": [
        {
          "internalType": "string",
          "name": "_name",
          "type": "string"
        },
        {
          "internalType": "uint8",
          "name": "_clearance",
          "type": "uint8"
        },
        {
          "internalType": "address",
          "name": "_walletAddress",
          "type": "address"
        }
      ],
      "name": "HR_AddEmployee",
      "outputs": [],
      "stateMutability": "nonpayable",
      "type": "function"
    },
    {
      "inputs": [
        {
          "internalType": "string",
          "name": "_name",
          "type": "string"
        },
        {
          "internalType": "uint8",
          "name": "_clearance",
          "type": "uint8"
        },
        {
          "internalType": "address",
          "name": "_walletAddress",
          "type": "address"
        }
      ],
      "name": "HR_ModifyEmployee",
      "outputs": [],
      "stateMutability": "nonpayable",
      "type": "function"
    },
    {
      "inputs": [
        {
          "internalType": "string",
          "name": "_name",
          "type": "string"
        }
      ],
      "name": "HR_DeleteEmployee",
      "outputs": [],
      "stateMutability": "nonpayable",
      "type": "function"
    },
    {
      "inputs": [
        {
          "internalType": "string",
          "name": "_name",
          "type": "string"
        }
      ],
      "name": "HR_GetClearance",
      "outputs": [
        {
          "internalType": "uint8",
          "name": "",
          "type": "uint8"
        }
      ],
      "stateMutability": "view",
      "type": "function"
    },
    {
      "inputs": [
        {
          "internalType": "string",
          "name": "_name",
          "type": "string"
        }
      ],
      "name": "HR_GetAddress",
      "outputs": [
        {
          "internalType": "address",
          "name": "",
          "type": "address"
        }
      ],
      "stateMutability": "view",
      "type": "function"
    },
    {
      "inputs": [
        {
          "internalType": "string",
          "name": "_name",
          "type": "string"
        }
      ],
      "name": "HR_GetDrivenCar",
      "outputs": [
        {
          "internalType": "string",
          "name": "",
          "type": "string"
        }
      ],
      "stateMutability": "view",
      "type": "function"
    },
    {
      "inputs": [
        {
          "internalType": "string",
          "name": "_name",
          "type": "string"
        }
      ],
      "name": "HR_IsEmployee",
      "outputs": [
        {
          "internalType": "bool",
          "name": "",
          "type": "bool"
        }
      ],
      "stateMutability": "view",
      "type": "function"
    }
  ],
  "bytecode": "0x608060405234801561001057600080fd5b5061002d61002261003260201b60201c565b61003a60201b60201c565b6100fe565b600033905090565b60008060009054906101000a900473ffffffffffffffffffffffffffffffffffffffff169050816000806101000a81548173ffffffffffffffffffffffffffffffffffffffff021916908373ffffffffffffffffffffffffffffffffffffffff1602179055508173ffffffffffffffffffffffffffffffffffffffff168173ffffffffffffffffffffffffffffffffffffffff167f8be0079c531659141344cd1fd0a4f28419497f9722a3daafe3b4186f6b6457e060405160405180910390a35050565b6114298061010d6000396000f3fe608060405234801561001057600080fd5b50600436106100a95760003560e01c80638da5cb5b116100715780638da5cb5b14610150578063b57447cc1461016e578063e96adc1b1461018a578063f1e8cca9146101ba578063f2fde38b146101ea578063fa448a4b14610206576100a9565b80632bdc9c58146100ae57806343bb0f4f146100ca57806368f50d63146100e6578063715018a61461011657806381c1598314610120575b600080fd5b6100c860048036038101906100c39190610dc3565b610239565b005b6100e460048036038101906100df9190610ea3565b61036f565b005b61010060048036038101906100fb9190610dc3565b6104c1565b60405161010d9190610f21565b60405180910390f35b61011e61050c565b005b61013a60048036038101906101359190610dc3565b610594565b6040516101479190610f57565b60405180910390f35b6101586105dd565b6040516101659190610f21565b60405180910390f35b61018860048036038101906101839190610ea3565b610606565b005b6101a4600480360381019061019f9190610dc3565b6107d0565b6040516101b19190610f81565b60405180910390f35b6101d460048036038101906101cf9190610dc3565b610808565b6040516101e19190611024565b60405180910390f35b61020460048036038101906101ff9190611046565b6108bb565b005b610220600480360381019061021b9190610dc3565b6109b2565b6040516102309493929190611073565b60405180910390f35b610241610aba565b73ffffffffffffffffffffffffffffffffffffffff1661025f6105dd565b73ffffffffffffffffffffffffffffffffffffffff16146102b5576040517f08c379a00000000000000000000000000000000000000000000000000000000081526004016102ac9061110b565b60405180910390fd5b6001816040516102c59190611167565b9081526020016040518091039020600080820160006101000a81549060ff02191690556000820160016101000a81549073ffffffffffffffffffffffffffffffffffffffff021916905560018201600061031f9190610b86565b6002820160006101000a81549060ff021916905550507f39b8d23135cdeca3f85b347e5285f40c9b1de764cf9f8126e7f3b34d77ff0cf08160405161036491906111ca565b60405180910390a150565b610377610aba565b73ffffffffffffffffffffffffffffffffffffffff166103956105dd565b73ffffffffffffffffffffffffffffffffffffffff16146103eb576040517f08c379a00000000000000000000000000000000000000000000000000000000081526004016103e29061110b565b60405180910390fd5b816001846040516103fc9190611167565b908152602001604051809103902060000160006101000a81548160ff021916908360ff160217905550806001846040516104369190611167565b908152602001604051809103902060000160016101000a81548173ffffffffffffffffffffffffffffffffffffffff021916908373ffffffffffffffffffffffffffffffffffffffff1602179055507f39b8d23135cdeca3f85b347e5285f40c9b1de764cf9f8126e7f3b34d77ff0cf0836040516104b4919061124b565b60405180910390a1505050565b60006001826040516104d39190611167565b908152602001604051809103902060000160019054906101000a900473ffffffffffffffffffffffffffffffffffffffff169050919050565b610514610aba565b73ffffffffffffffffffffffffffffffffffffffff166105326105dd565b73ffffffffffffffffffffffffffffffffffffffff1614610588576040517f08c379a000000000000000000000000000000000000000000000000000000000815260040161057f9061110b565b60405180910390fd5b6105926000610ac2565b565b60006001826040516105a69190611167565b908152602001604051809103902060020160009054906101000a900460ff16156105d357600190506105d8565b600090505b919050565b60008060009054906101000a900473ffffffffffffffffffffffffffffffffffffffff16905090565b61060e610aba565b73ffffffffffffffffffffffffffffffffffffffff1661062c6105dd565b73ffffffffffffffffffffffffffffffffffffffff1614610682576040517f08c379a00000000000000000000000000000000000000000000000000000000081526004016106799061110b565b60405180910390fd5b60405180608001604052808360ff1681526020018273ffffffffffffffffffffffffffffffffffffffff168152602001604051806020016040528060008152508152602001600115158152506001846040516106de9190611167565b908152602001604051809103902060008201518160000160006101000a81548160ff021916908360ff16021790555060208201518160000160016101000a81548173ffffffffffffffffffffffffffffffffffffffff021916908373ffffffffffffffffffffffffffffffffffffffff1602179055506040820151816001019080519060200190610770929190610bc6565b5060608201518160020160006101000a81548160ff0219169083151502179055509050507f39b8d23135cdeca3f85b347e5285f40c9b1de764cf9f8126e7f3b34d77ff0cf0836040516107c391906112cc565b60405180910390a1505050565b60006001826040516107e29190611167565b908152602001604051809103902060000160009054906101000a900460ff169050919050565b606060018260405161081a9190611167565b9081526020016040518091039020600101805461083690611330565b80601f016020809104026020016040519081016040528092919081815260200182805461086290611330565b80156108af5780601f10610884576101008083540402835291602001916108af565b820191906000526020600020905b81548152906001019060200180831161089257829003601f168201915b50505050509050919050565b6108c3610aba565b73ffffffffffffffffffffffffffffffffffffffff166108e16105dd565b73ffffffffffffffffffffffffffffffffffffffff1614610937576040517f08c379a000000000000000000000000000000000000000000000000000000000815260040161092e9061110b565b60405180910390fd5b600073ffffffffffffffffffffffffffffffffffffffff168173ffffffffffffffffffffffffffffffffffffffff16036109a6576040517f08c379a000000000000000000000000000000000000000000000000000000000815260040161099d906113d3565b60405180910390fd5b6109af81610ac2565b50565b6001818051602081018201805184825260208301602085012081835280955050505050506000915090508060000160009054906101000a900460ff16908060000160019054906101000a900473ffffffffffffffffffffffffffffffffffffffff1690806001018054610a2490611330565b80601f0160208091040260200160405190810160405280929190818152602001828054610a5090611330565b8015610a9d5780601f10610a7257610100808354040283529160200191610a9d565b820191906000526020600020905b815481529060010190602001808311610a8057829003601f168201915b5050505050908060020160009054906101000a900460ff16905084565b600033905090565b60008060009054906101000a900473ffffffffffffffffffffffffffffffffffffffff169050816000806101000a81548173ffffffffffffffffffffffffffffffffffffffff021916908373ffffffffffffffffffffffffffffffffffffffff1602179055508173ffffffffffffffffffffffffffffffffffffffff168173ffffffffffffffffffffffffffffffffffffffff167f8be0079c531659141344cd1fd0a4f28419497f9722a3daafe3b4186f6b6457e060405160405180910390a35050565b508054610b9290611330565b6000825580601f10610ba45750610bc3565b601f016020900490600052602060002090810190610bc29190610c4c565b5b50565b828054610bd290611330565b90600052602060002090601f016020900481019282610bf45760008555610c3b565b82601f10610c0d57805160ff1916838001178555610c3b565b82800160010185558215610c3b579182015b82811115610c3a578251825591602001919060010190610c1f565b5b509050610c489190610c4c565b5090565b5b80821115610c65576000816000905550600101610c4d565b5090565b6000604051905090565b600080fd5b600080fd5b600080fd5b600080fd5b6000601f19601f8301169050919050565b7f4e487b7100000000000000000000000000000000000000000000000000000000600052604160045260246000fd5b610cd082610c87565b810181811067ffffffffffffffff82111715610cef57610cee610c98565b5b80604052505050565b6000610d02610c69565b9050610d0e8282610cc7565b919050565b600067ffffffffffffffff821115610d2e57610d2d610c98565b5b610d3782610c87565b9050602081019050919050565b82818337600083830152505050565b6000610d66610d6184610d13565b610cf8565b905082815260208101848484011115610d8257610d81610c82565b5b610d8d848285610d44565b509392505050565b600082601f830112610daa57610da9610c7d565b5b8135610dba848260208601610d53565b91505092915050565b600060208284031215610dd957610dd8610c73565b5b600082013567ffffffffffffffff811115610df757610df6610c78565b5b610e0384828501610d95565b91505092915050565b600060ff82169050919050565b610e2281610e0c565b8114610e2d57600080fd5b50565b600081359050610e3f81610e19565b92915050565b600073ffffffffffffffffffffffffffffffffffffffff82169050919050565b6000610e7082610e45565b9050919050565b610e8081610e65565b8114610e8b57600080fd5b50565b600081359050610e9d81610e77565b92915050565b600080600060608486031215610ebc57610ebb610c73565b5b600084013567ffffffffffffffff811115610eda57610ed9610c78565b5b610ee686828701610d95565b9350506020610ef786828701610e30565b9250506040610f0886828701610e8e565b9150509250925092565b610f1b81610e65565b82525050565b6000602082019050610f366000830184610f12565b92915050565b60008115159050919050565b610f5181610f3c565b82525050565b6000602082019050610f6c6000830184610f48565b92915050565b610f7b81610e0c565b82525050565b6000602082019050610f966000830184610f72565b92915050565b600081519050919050565b600082825260208201905092915050565b60005b83811015610fd6578082015181840152602081019050610fbb565b83811115610fe5576000848401525b50505050565b6000610ff682610f9c565b6110008185610fa7565b9350611010818560208601610fb8565b61101981610c87565b840191505092915050565b6000602082019050818103600083015261103e8184610feb565b905092915050565b60006020828403121561105c5761105b610c73565b5b600061106a84828501610e8e565b91505092915050565b60006080820190506110886000830187610f72565b6110956020830186610f12565b81810360408301526110a78185610feb565b90506110b66060830184610f48565b95945050505050565b7f4f776e61626c653a2063616c6c6572206973206e6f7420746865206f776e6572600082015250565b60006110f5602083610fa7565b9150611100826110bf565b602082019050919050565b60006020820190508181036000830152611124816110e8565b9050919050565b600081905092915050565b600061114182610f9c565b61114b818561112b565b935061115b818560208601610fb8565b80840191505092915050565b60006111738284611136565b915081905092915050565b7f44656c657465643a200000000000000000000000000000000000000000000000600082015250565b60006111b4600983610fa7565b91506111bf8261117e565b602082019050919050565b600060408201905081810360008301526111e3816111a7565b905081810360208301526111f78184610feb565b905092915050565b7f4d6f6469666965643a2000000000000000000000000000000000000000000000600082015250565b6000611235600a83610fa7565b9150611240826111ff565b602082019050919050565b6000604082019050818103600083015261126481611228565b905081810360208301526112788184610feb565b905092915050565b7f41646465643a2000000000000000000000000000000000000000000000000000600082015250565b60006112b6600783610fa7565b91506112c182611280565b602082019050919050565b600060408201905081810360008301526112e5816112a9565b905081810360208301526112f98184610feb565b905092915050565b7f4e487b7100000000000000000000000000000000000000000000000000000000600052602260045260246000fd5b6000600282049050600182168061134857607f821691505b60208210810361135b5761135a611301565b5b50919050565b7f4f776e61626c653a206e6577206f776e657220697320746865207a65726f206160008201527f6464726573730000000000000000000000000000000000000000000000000000602082015250565b60006113bd602683610fa7565b91506113c882611361565b604082019050919050565b600060208201905081810360008301526113ec816113b0565b905091905056fea264697066735822122036fd2c17231f546aa43475ec053cd1f2a5d9886bb4d6368376e1f289779ee06464736f6c634300080d0033",
  "immutableReferences": {},
  "source": "// SPDX-License-Identifier: MIT\r\npragma solidity ^0.8.4;\r\n\r\nimport \"@openzeppelin/contracts/access/Ownable.sol\";\r\n\r\ncontract HR is Ownable{\r\n    event Event(string,string);\r\n    struct Employee{\r\n        uint8 clearance;\r\n        address walletAddress;\r\n        string drivenCar;\r\n        bool exists;}\r\n    mapping (string=>Employee) public EmployeeParameters; //employee name => employee parameters\r\n    \r\n    function HR_AddEmployee(string memory _name, uint8 _clearance, address _walletAddress)public onlyOwner{\r\n        EmployeeParameters[_name]=Employee(_clearance,_walletAddress, \"\", true);\r\n        emit Event(\"Added: \", _name);}\r\n    function HR_ModifyEmployee(string memory _name,uint8 _clearance,address _walletAddress)public onlyOwner{\r\n        EmployeeParameters[_name].clearance=_clearance;\r\n        EmployeeParameters[_name].walletAddress=_walletAddress;\r\n        emit Event(\"Modified: \", _name);}\r\n    function HR_DeleteEmployee(string memory _name)public onlyOwner{\r\n        delete EmployeeParameters[_name];\r\n        emit Event(\"Deleted: \", _name);}\r\n    function HR_GetClearance(string memory _name)public view returns(uint8){\r\n        return EmployeeParameters[_name].clearance;}\r\n    function HR_GetAddress(string memory _name)public view returns(address){\r\n        return EmployeeParameters[_name].walletAddress;}\r\n    function HR_SetDrivenCar(string memory _name, string memory _registrationNumber)internal{\r\n        EmployeeParameters[_name].drivenCar=_registrationNumber;}\r\n    function HR_GetDrivenCar(string memory _name) public view returns(string memory){\r\n        return EmployeeParameters[_name].drivenCar;}\r\n    function HR_IsEmployee(string memory _name) public view returns (bool){\r\n        if (EmployeeParameters[_name].exists){\r\n            return true;\r\n        }\r\n        else{return false;}}\r\n}",
  "sourcePath": "C:\\GM\\BME\\2. f\\BTA\\Project\\contracts\\HR.sol",
  "compiler": {
    "name": "solc",
    "version": "0.8.13+commit.abaa5c0e.Emscripten.clang"
  },
  "schemaVersion": "3.4.7",
  "updatedAt": "2023-03-29T10:03:49.465Z",
  "devdoc": {
    "kind": "dev",
    "methods": {
      "owner()": {
        "details": "Returns the address of the current owner."
      },
      "renounceOwnership()": {
        "details": "Leaves the contract without owner. It will not be possible to call `onlyOwner` functions anymore. Can only be called by the current owner. NOTE: Renouncing ownership will leave the contract without an owner, thereby removing any functionality that is only available to the owner."
      },
      "transferOwnership(address)": {
        "details": "Transfers ownership of the contract to a new account (`newOwner`). Can only be called by the current owner."
      }
    },
    "version": 1
  },
  "userdoc": {
    "kind": "user",
    "methods": {},
    "version": 1
  }
}