{
  "contractName": "StringUtils",
  "abi": [
    {
      "inputs": [
        {
          "internalType": "string",
          "name": "_a",
          "type": "string"
        },
        {
          "internalType": "string",
          "name": "_b",
          "type": "string"
        }
      ],
      "name": "compare",
      "outputs": [
        {
          "internalType": "int256",
          "name": "",
          "type": "int256"
        }
      ],
      "stateMutability": "pure",
      "type": "function"
    },
    {
      "inputs": [
        {
          "internalType": "string",
          "name": "_a",
          "type": "string"
        },
        {
          "internalType": "string",
          "name": "_b",
          "type": "string"
        }
      ],
      "name": "equal",
      "outputs": [
        {
          "internalType": "bool",
          "name": "",
          "type": "bool"
        }
      ],
      "stateMutability": "pure",
      "type": "function"
    },
    {
      "inputs": [
        {
          "internalType": "string",
          "name": "_haystack",
          "type": "string"
        },
        {
          "internalType": "string",
          "name": "_needle",
          "type": "string"
        }
      ],
      "name": "indexOf",
      "outputs": [
        {
          "internalType": "int256",
          "name": "",
          "type": "int256"
        }
      ],
      "stateMutability": "pure",
      "type": "function"
    }
  ],
  "bytecode": "0x608060405234801561001057600080fd5b5061088f806100206000396000f3fe608060405234801561001057600080fd5b50600436106100415760003560e01c80633a96fdd71461004657806346bdca9a146100765780638a0807b7146100a6575b600080fd5b610060600480360381019061005b9190610671565b6100d6565b60405161006d9190610702565b60405180910390f35b610090600480360381019061008b9190610671565b6102b2565b60405161009d9190610738565b60405180910390f35b6100c060048036038101906100bb9190610671565b6102c8565b6040516100cd9190610702565b60405180910390f35b600080839050600083905060008251905080825110156100f557815190505b60005b818110156102585782818151811061011357610112610753565b5b602001015160f81c60f81b7effffffffffffffffffffffffffffffffffffffffffffffffffffffffffffff191684828151811061015357610152610753565b5b602001015160f81c60f81b7effffffffffffffffffffffffffffffffffffffffffffffffffffffffffffff191610156101b2577fffffffffffffffffffffffffffffffffffffffffffffffffffffffffffffffff9450505050506102ac565b8281815181106101c5576101c4610753565b5b602001015160f81c60f81b7effffffffffffffffffffffffffffffffffffffffffffffffffffffffffffff191684828151811061020557610204610753565b5b602001015160f81c60f81b7effffffffffffffffffffffffffffffffffffffffffffffffffffffffffffff191611156102455760019450505050506102ac565b8080610250906107bb565b9150506100f8565b5081518351101561028e577fffffffffffffffffffffffffffffffffffffffffffffffffffffffffffffffff93505050506102ac565b8151835111156102a457600193505050506102ac565b600093505050505b92915050565b6000806102bf84846100d6565b14905092915050565b60008083905060008390506001825110806102e4575060018151105b806102f0575081518151115b1561031f577fffffffffffffffffffffffffffffffffffffffffffffffffffffffffffffffff92505050610511565b6fffffffffffffffffffffffffffffffff82511115610362577fffffffffffffffffffffffffffffffffffffffffffffffffffffffffffffffff92505050610511565b6000805b83518110156104e9578260008151811061038357610382610753565b5b602001015160f81c60f81b7effffffffffffffffffffffffffffffffffffffffffffffffffffffffffffff19168482815181106103c3576103c2610753565b5b602001015160f81c60f81b7effffffffffffffffffffffffffffffffffffffffffffffffffffffffffffff1916036104d657600191505b8251821080156104155750835182826104139190610803565b105b80156104a9575082828151811061042f5761042e610753565b5b602001015160f81c60f81b7effffffffffffffffffffffffffffffffffffffffffffffffffffffffffffff19168483836104699190610803565b8151811061047a57610479610753565b5b602001015160f81c60f81b7effffffffffffffffffffffffffffffffffffffffffffffffffffffffffffff1916145b156104c15781806104b9906107bb565b9250506103fa565b825182036104d55780945050505050610511565b5b80806104e1906107bb565b915050610366565b507fffffffffffffffffffffffffffffffffffffffffffffffffffffffffffffffff93505050505b92915050565b6000604051905090565b600080fd5b600080fd5b600080fd5b600080fd5b6000601f19601f8301169050919050565b7f4e487b7100000000000000000000000000000000000000000000000000000000600052604160045260246000fd5b61057e82610535565b810181811067ffffffffffffffff8211171561059d5761059c610546565b5b80604052505050565b60006105b0610517565b90506105bc8282610575565b919050565b600067ffffffffffffffff8211156105dc576105db610546565b5b6105e582610535565b9050602081019050919050565b82818337600083830152505050565b600061061461060f846105c1565b6105a6565b9050828152602081018484840111156106305761062f610530565b5b61063b8482856105f2565b509392505050565b600082601f8301126106585761065761052b565b5b8135610668848260208601610601565b91505092915050565b6000806040838503121561068857610687610521565b5b600083013567ffffffffffffffff8111156106a6576106a5610526565b5b6106b285828601610643565b925050602083013567ffffffffffffffff8111156106d3576106d2610526565b5b6106df85828601610643565b9150509250929050565b6000819050919050565b6106fc816106e9565b82525050565b600060208201905061071760008301846106f3565b92915050565b60008115159050919050565b6107328161071d565b82525050565b600060208201905061074d6000830184610729565b92915050565b7f4e487b7100000000000000000000000000000000000000000000000000000000600052603260045260246000fd5b7f4e487b7100000000000000000000000000000000000000000000000000000000600052601160045260246000fd5b6000819050919050565b60006107c6826107b1565b91507fffffffffffffffffffffffffffffffffffffffffffffffffffffffffffffffff82036107f8576107f7610782565b5b600182019050919050565b600061080e826107b1565b9150610819836107b1565b9250827fffffffffffffffffffffffffffffffffffffffffffffffffffffffffffffffff0382111561084e5761084d610782565b5b82820190509291505056fea2646970667358221220ce81e7892dbfee861509cbdd0922c398321d0a990d5902e79728d9a44a7ce08e64736f6c634300080d0033",
  "immutableReferences": {},
  "source": "// SPDX-License-Identifier: MIT\npragma solidity >=0.4.22 <0.9.0;\n\ncontract StringUtils {\n    /// @dev Does a byte-by-byte lexicographical comparison of two strings.\n    /// @return a negative number if `_a` is smaller, zero if they are equal\n    /// and a positive numbe if `_b` is smaller.\n    function compare(string memory _a, string memory _b) public pure returns (int) {\n        bytes memory a = bytes(_a);\n        bytes memory b = bytes(_b);\n        uint minLength = a.length;\n        if (b.length < minLength) minLength = b.length;\n        //@todo unroll the loop into increments of 32 and do full 32 byte comparisons\n        for (uint i = 0; i < minLength; i ++)\n            if (a[i] < b[i])\n                return -1;\n            else if (a[i] > b[i])\n                return 1;\n        if (a.length < b.length)\n            return -1;\n        else if (a.length > b.length)\n            return 1;\n        else\n            return 0;\n    }\n    /// @dev Compares two strings and returns true iff they are equal.\n    function equal(string memory _a, string memory _b)public pure returns (bool) {\n        return compare(_a, _b) == 0;\n    }\n    /// @dev Finds the index of the first occurrence of _needle in _haystack\n    function indexOf(string memory _haystack, string memory _needle)public pure returns (int)\n    {\n    \tbytes memory h = bytes(_haystack);\n    \tbytes memory n = bytes(_needle);\n    \tif(h.length < 1 || n.length < 1 || (n.length > h.length)) \n    \t\treturn -1;\n    \telse if(h.length > (2**128 -1)) // since we have to be able to return -1 (if the char isn't found or input error), this function must return an \"int\" type with a max length of (2^128 - 1)\n    \t\treturn -1;\t\t\t\t\t\t\t\t\t\n    \telse\n    \t{\n    \t\tuint subindex = 0;\n    \t\tfor (uint i = 0; i < h.length; i ++)\n    \t\t{\n    \t\t\tif (h[i] == n[0]) // found the first char of b\n    \t\t\t{\n    \t\t\t\tsubindex = 1;\n    \t\t\t\twhile(subindex < n.length && (i + subindex) < h.length && h[i + subindex] == n[subindex]) // search until the chars don't match or until we reach the end of a or b\n    \t\t\t\t{\n    \t\t\t\t\tsubindex++;\n    \t\t\t\t}\t\n    \t\t\t\tif(subindex == n.length)\n    \t\t\t\t\treturn int(i);\n    \t\t\t}\n    \t\t}\n    \t\treturn -1;\n    \t}\t\n    }\n}\n",
  "sourcePath": "C:\\GM\\BME\\2. f\\BTA\\Project\\contracts\\StringUtils.sol",
  "compiler": {
    "name": "solc",
    "version": "0.8.13+commit.abaa5c0e.Emscripten.clang"
  },
  "schemaVersion": "3.4.7",
  "updatedAt": "2023-03-29T10:03:49.501Z",
  "devdoc": {
    "kind": "dev",
    "methods": {
      "compare(string,string)": {
        "details": "Does a byte-by-byte lexicographical comparison of two strings.",
        "returns": {
          "_0": "a negative number if `_a` is smaller, zero if they are equal and a positive numbe if `_b` is smaller."
        }
      },
      "equal(string,string)": {
        "details": "Compares two strings and returns true iff they are equal."
      },
      "indexOf(string,string)": {
        "details": "Finds the index of the first occurrence of _needle in _haystack"
      }
    },
    "version": 1
  },
  "userdoc": {
    "kind": "user",
    "methods": {},
    "version": 1
  }
}